:020000040800F2
:1000000028060020D12B0008792B00087B2B000844
:100010007D2B00087F2B0008812B000800000000CA
:10002000000000000000000000000000832B00081A
:10003000852B000800000000872B0008892B000892
:10004000F52B0008F92B0008FD2B0008012C0008F7
:10005000052C0008092C00080D2C0008112C0008A4
:10006000152C0008192C00081D2C0008212C000854
:10007000252C0008292C00082D2C0008312C000804
:10008000352C0008392C00083D2C0008412C0008B4
:10009000452C0008492C00084D2C0008512C000864
:1000A000552C0008592C00085D2C0008612C000814
:1000B000652C0008692C0008000000006D2C000869
:1000C000712C00080000000000000000752C0008E2
:1000D00000000000792C00087D2C0008812C00080D
:1000E000852C0008892C000800000000000000009A
:1000F0000000000000000000000000000000000000
:1001000000000000000000000000000000000000EF
:1001100000000000000000008D2C0008912C000859
:1001200000000000000000000000000000000000CF
:1001300000000000000000000000000000000000BF
:10014000952C0008992C0008000000000000000019
:10015000000000000000000000000000000000009F
:10016000000000000000000000000000000000008F
:10017000000000000000000000000000000000007F
:10018000000000009D2C000810B5040001D10120E2
:1001900010BD94F83D00002805D1002084F83C00F3
:1001A000204600F03CFD022084F83D00211D20681F
:1001B00000F034FA012084F8480084F83E0084F806
:1001C0003F0084F8400084F8410084F8420084F83D
:1001D000430084F8440084F8450084F8460084F81D
:1001E000470084F83D00002010BD10B5040001D187
:1001F000012010BD94F83D00002805D1002084F8AE
:100200003C00204600F0D8FC022084F83D00211D6F
:10021000206800F003FA012084F8480084F83E00CA
:1002200084F83F0084F8400084F8410084F84200DC
:1002300084F8430084F8440084F8450084F84600BC
:1002400084F8470084F83D00002010BD10B504007C
:1002500001D1012010BD94F83D00002805D10020F7
:1002600084F83C00204600F072FC022084F83D0037
:10027000211D206800F0D2F9012084F8480084F89C
:100280003E0084F83F0084F8400084F8410084F880
:10029000420084F8430084F8440084F8450084F860
:1002A000460084F8470084F83D00002010BD38B5B2
:1002B00004460D46002C01D1012032BD94F83D00CA
:1002C000002805D1002084F83C00204600F02AFDDB
:1002D000022084F83D0020688168DFF83001014089
:1002E00020688160211D206800F098F920688168ED
:1002F0008269036ADFF818010240A8680243A8690E
:1003000042EA0022DFF810030240E8680243E8698D
:1003100042EA0022286942EA0012286A42EA0032D0
:1003200023F0AA0368680343686943EA0013286856
:100330000143206881602068826120680362012097
:1003400084F8480084F83E0084F83F0084F84400B4
:1003500084F8450084F83D00002032BD38B50446DD
:1003600094F83E0094F83F2094F8443094F84550B7
:10037000002909D101281BD1012B19D1022084F8B1
:100380003E0084F844001EE0042909D1012A0FD15F
:10039000012D0DD1022084F83F0084F8450012E0C1
:1003A000012805D1012A03D1012B01D1012D01D052
:1003B000012032BD022084F83E0084F83F0084F81A
:1003C000440084F84500002902D0042906D00BE03F
:1003D00001220021206800F011FB0FE0012204211E
:1003E000206800F00BFB09E001220021206800F0EA
:1003F00005FB01220421206800F000FB2068006852
:1004000040F0010021680860002032BDF8BFFEFF07
:10041000FCFCFFFF38B504460D4694F83C0001286B
:1004200001D1022032BD012084F83C00002A12D103
:10043000EB686A682968206800F05FFA20688069C4
:1004400020F00C002168886120688169A868014358
:100450002068816139E0042A13D1EB686A68296851
:10046000206800F087FA2068806920F440602168E5
:10047000886120688069A96840EA01202168886154
:1004800023E0082AEB686A68296820680ED100F02A
:1004900088FA2068C06920F00C002168C8612068D3
:1004A000C169A86801432068C1610EE000F08FFABD
:1004B0002068C06920F440602168C8612068C06974
:1004C000A96840EA01202168C861002084F83C0046
:1004D00032BD38B504460D4694F83C00012801D1E0
:1004E000022032BD012084F83C00002A0AD0042AF0
:1004F0001ED0082A33D00C2A47D0102A5CD0142AE8
:1005000070D085E0206800F0D2F82068806940F063
:100510000800216888612068806920F00400216853
:1005200088612068816928690143206881616FE0E2
:10053000206800F0FCF82068806940F400602168C1
:1005400088612068806920F4806021688861206863
:100550008069296940EA01202168886158E02068A3
:1005600000F019F92068C06940F008002168C861EE
:100570002068C06920F004002168C8612068C16952
:10058000286901432068C16142E0206800F037F922
:100590002068C06940F400602168C8612068C069B3
:1005A00020F480602168C8612068C069296940EA38
:1005B00001202168C8612BE0206800F04AF920681A
:1005C000406D40F00800216848652068406D20F0CB
:1005D0000400216848652068416D2869014320684E
:1005E000416515E0206800F05EF92068406D40F438
:1005F0000060216848652068406D20F480602168B3
:1006000048652068406D296940EA012021684865F5
:10061000002084F83C0032BD0303FFFF0368DFF8CD
:100620003023904206D0B0F1804F03D0DFF824236E
:10063000904203D123F070034A681343DFF810237C
:10064000904212D0B0F1804F0FD0DFF808239042D3
:100650000BD0DFF80423904207D0DFF8002390424C
:1006600003D0DFF8FC22904203D123F44073CA6820
:10067000134323F080034A69134303608A68C2620C
:100680000A688262DFF8C82290420BD0DFF8C822E5
:10069000904207D0DFF8C422904203D0DFF8C02296
:1006A000904201D10969016301214161704730B471
:1006B000026A520852000262046A43688569DFF8E0
:1006C000A42215400A68154324F002048A681443E2
:1006D000DFF87C2290420BD0DFF87C22904207D0DA
:1006E000DFF87822904203D0DFF87422904205D1DF
:1006F00024F00804CA68144324F00404944A904285
:1007000008D0954A904205D0944A904202D0944A2B
:10071000904205D123F440734A6913438A69134315
:100720004360856149684163046230BC704770B4BE
:10073000026A22F010020262046A436885698A4AEA
:1007400015400A6845EA022524F020048A6844EA34
:1007500002147F4A904206D124F08004CA6844EA19
:10076000021424F0400408D07B4A904205D07B4A12
:10077000904202D07A4A904206D123F440634E69F7
:100780008A69164343EA8603436085614968816349
:10079000046270BC704770B4026A22F48072026214
:1007A000046A4368C5696F4A15400A68154324F412
:1007B00000748A6844EA0224654A904206D124F40F
:1007C0000064CA6844EA022424F4806408D0624ABF
:1007D000904205D0614A904202D0614A904206D1CF
:1007E00023F440534E698A69164343EA0613436073
:1007F000C5614968C163046270BC7047000030B4D1
:10080000026A22F480520262036A4468C569564A49
:1008100015400A6845EA022523F400538A6843EA32
:1008200002334B4A904208D04B4A904205D04B4A83
:10083000904202D04A4A904204D124F480444A694A
:1008400044EA82144460C56149680164036230BCB3
:10085000704730B4026A22F480320262036A44684C
:10086000456D424A15400A68154323F400338A68EF
:1008700043EA0243364A904208D0374A904205D0B4
:10088000364A904202D0364A904204D124F4803451
:100890004A6944EA02244460456549688165036207
:1008A00030BC7047000030B4026A22F48012026249
:1008B000036A4468456D2E4A15400A6845EA0225D8
:1008C00023F400138A6843EA0253214A904208D075
:1008D000214A904205D0214A904202D0204A9042BB
:1008E00004D124F480244A6944EA822444604565A2
:1008F0004968C165036230BC704770B4046A64081B
:10090000640004628469056A114EB04208D0B0F1F7
:10091000804F05D00F4EB04202D00F4EB04201D1F1
:10092000012600E00026002E03D0A40852EA84022B
:1009300002E0224642F0010263F30712826125F0D1
:100940000A0501F00A012943016270BC70470000EA
:10095000002C0140000400400040014000440140E0
:10096000004801408CFFFEFFFF8CFFFE8FFFFEFF63
:10097000FF8FFFFE30B4046A24F01004046284691F
:10098000056A24F4407444EA022463F30F3484615A
:1009900025F0A005090101F0A0012943016230BC46
:1009A000704730B4046A24F480740462C469056A30
:1009B000A40852EA840263F30712C26125F4206599
:1009C000090201F420612943016230BC704730B450
:1009D000046A24F480540462C469056A24F44074EF
:1009E00044EA022463F30F34C46125F4204509036B
:1009F00001F420412943016230BC704730B4046ADD
:100A0000012501F01F039D40AC430462036A01F01D
:100A10001F0102FA01F11943016230BC70470EE078
:100A200002684368024408305FEAC37C44BF4B4419
:100A30005B1E52F804CB43F804CB091FF9D150F8E0
:100A4000041B0029ECD1704781B0DFF8B4020068C4
:100A500040F00100DFF8A81208600846006800F0C6
:100A6000010000900098DFF89C02006840F0805080
:100A7000DFF8901208600846006800F0805000908F
:100A8000009801B0704710B586B0044614220021CA
:100A900001A800F048F92068B0F1A04F21D19A4890
:100AA000006840F08050984908600846006800F0EF
:100AB0008050009000980846006840F400300860BC
:100AC0000846006800F40030009000980120019072
:100AD000032002900020039001A94FF0904000F005
:100AE0002DF906B010BD10B586B0044614220021C1
:100AF00001A800F018F920688449884225D182486D
:100B0000006840F48020804908600846006800F4CE
:100B1000802000900098C0200190122002900120B7
:100B20000390032004900420059001A9784800F068
:100B300005F97448006840F40010724908600846DE
:100B4000006800F400100090009806B010BD10B5C9
:100B500086B004461422002101A800F0E4F82068C1
:100B60006C49884226D16648006840F400606449B8
:100B700008600846006800F4006000900098624831
:100B8000006840F40030604908600846006800F4DE
:100B90000030009000984FF4807001900220029085
:100BA0000020039004900620059001A94FF090408A
:100BB00000F0C4F806B010BD10B586B0044614228B
:100BC000002101A800F0AFF820685349884224D1E1
:100BD0004C48006840F002004A4908600846006836
:100BE00000F00200009000984748006840F4802020
:100BF000454908600846006800F48020009000988D
:100C000030200190022002900020039004900220E6
:100C1000059001A93E4800F091F806B010BD81B0E2
:100C200000683E4988420BD13548006840F40030E6
:100C3000334908600846006800F4003000900098CE
:100C400001B0704710B586B004461422002101A8F7
:100C500000F069F820683049884218D12A480068B5
:100C600040F48020284908600846006800F480208D
:100C70000090009803200190022002900020039031
:100C800004900220059001A9214800F057F806B011
:100C900010BD10B586B004461422002101A800F052
:100CA00042F820681E49884227D11548006840F460
:100CB0008040134908600846006800F480400090B6
:100CC00000981148006840F400300F490860084659
:100CD000006800F40030009000984FF4C06001906C
:100CE000022002900020039003200490072005902A
:100CF00001A94FF0904000F021F806B010BD0000AF
:100D0000181002401C100240141002400054004011
:100D100000040048002C0140000400400044014051
:100D200000380140704710B5044610460A46014697
:100D3000204600F0CDF8204610BD0000F8B4024671
:100D4000002334E0052403E0584CA242FAD10324E6
:100D50009E0006F00C06B4402C43554D1E46B608C6
:100D600045F82640534C246884434D68ED0300D574
:100D70000443504D2C60504C246884434D68AD03AF
:100D800000D504434C4D2C604C4C246884434D6882
:100D9000ED0200D50443494D2C60494C246884433E
:100DA0004D68AD0200D50443454804605B1C0868EB
:100DB000D84079D0086801249C402040F6D04C6887
:100DC000012C05D0022C03D0112C01D0122C12D1F1
:100DD000946803255E00B540AC43CD68B5402C4314
:100DE0009460546801259D40AC434D68C5F30015DF
:100DF0009D402C435460D46803255E00B540AC434D
:100E00008D68B5402C43D4604C68022C01D0122C64
:100E100015D11C46E40802EB8404246A1D46ED0843
:100E200002EB85050F269F0007F01C07BE40B44368
:100E30000E699F0007F01C07BE4034432C62146803
:100E400003255E00B540AC430D7905F00305B540C0
:100E50002C4314604C68E400A8D51A4C246844F074
:100E60000104184D2C602C46246804F00104009401
:100E7000009C0F4C1D46AD0854F825500F249E00D1
:100E800006F00C06B440A543B2F1904F01D1002406
:100E90005EE70D4CA24201D1012459E70B4CA2425E
:100EA0007FF452AF022453E7F1BC7047000C0048B6
:100EB000080001400004014004040140080401400E
:100EC0000C040140181002400004004800080048CB
:100ED00062F30F2262F31F42401810F0030308D0A0
:100EE000C91A1FD3DB0748BF00F8012D28BF20F81F
:100EF000022D130030B414461546103928BF20E9DE
:100F00003C00FAD8490728BF20E90C0048BF40F848
:100F1000042D890028BF20F8022D48BF00F8012DBC
:100F200030BC7047C91818BF00F8012DCB0728BF87
:100F300000F8012D7047000038B50446002528460A
:100F40000090002C01D1012032BD206CC0064FD48E
:100F5000206C002839D128466064E064A06484F8DD
:100F60003C002046FFF78FFD20688068C0002CD42D
:100F7000204600F048FB0546206CC00625D428001A
:100F800023D1206C20F4885040F0020020642068B7
:100F9000806820F04050216888602068806840F0B8
:100FA000805021688860DFF8A0010068DFF89C119C
:100FB000B0FBF1F000EB80014800009002E00098E7
:100FC000401E009000980028F9D120688068C00079
:100FD00003D52068806880000AD5206C20F00200CC
:100FE00040F010002064606C40F001006064012556
:100FF000206CC00600F19E80280040F09B80206895
:101000008068400700F19680206C20F4807040F0EA
:10101000020020642068B0F1A04F02D1DFF8301147
:1010200001E04FF0A0412068806800F00300012833
:1010300004D12068006800F0010000E000200028D2
:1010400017D100290BD0886800F00300012803D1D4
:10105000086800F0010000E00020002809D1DFF856
:10106000F400016821F4403160680143DFF8E400D6
:101070000160606B012802D04FF4805100E0002134
:10108000607E41EA4031E0680143A068014394F882
:101090002000012813D1607E002806D1606A401E1E
:1010A00041EA404141F4803109E0206C20F0020027
:1010B00040F020002064606C40F001006064A06A91
:1010C000012802D00143E06A01432068806810F0E3
:1010D0000C0F0DD12068C268DFF87C000240206848
:1010E000C260207E41EA803194F8300041EA40013C
:1010F0002068C268DFF86400024011432068C160C4
:10110000206901282068006B07D10009E169491EA8
:1011100051EA00102168086303E00009000121681A
:10112000086300206064206C20F0020040F00100A1
:10113000206406E0206C20F0020040F010002064E3
:101140000125284632BD00000400002040420F0067
:101150000001005008030050FDBFFFFF07C0F0FF73
:1011600078B40246084600210B46009392F83C30C2
:10117000012B01D10220BFE1012382F83C3013682A
:101180009B685B0700F1AF814368052B0ED21368A3
:101190001C6B1F25436803EB430673009D40AC4363
:1011A00005689D402C4313681C6331E00A2B0FD265
:1011B00013685C6B1F2543685B1F03EB43067300DA
:1011C0009D40AC4305689D402C4313685C631FE061
:1011D0000F2B13680ED29C6B1F2543680A3B03EB51
:1011E000430673009D40AC4305689D402C43136843
:1011F0009C630DE0DC6B1F2543680F3B03EB43064C
:1012000073009D40AC4305689D402C431368DC632C
:1012100013689B6813F00C0F40F0A68003680A2B3C
:10122000136811D39B69072405680A3D05EB450542
:10123000AC40A343846805680A3D05EB4505AC4016
:1012400023431468A3610EE05B690724056805EB7E
:101250004505AC40A3438468056805EB4505AC40F3
:1012600023431468636143691468E468E408640014
:1012700004F0060403FA04F403695B1E032B3BD855
:10128000DFE803F002101E2C13681D6EDFF8F83340
:101290001D40036845EA83652C4344F0004413680D
:1012A0001C6661E013685D6EDFF8DC331D40036887
:1012B00045EA83652C4344F0004413685C6653E0C0
:1012C00013689D6EDFF8C0331D40036845EA8365EF
:1012D0002C4344F0004413689C6645E01368DD6EBF
:1012E000DFF8A4331D40036845EA83652C4344F0CE
:1012F00000441368DC6637E013681B6E03F0F843A4
:101300000468B3EB846F05D113681B6E23F00043B0
:101310001468236613685B6E03F0F8430468B3EB4C
:10132000846F05D113685B6E23F000431468636615
:1013300013689B6E03F0F8430468B3EB846F05D128
:1013400013689B6E23F000431468A3661368DB6E7A
:1013500003F0F8430468B3EB846F05D11368DB6EC8
:1013600023F000431468E36613689B6803F00303EB
:10137000012B04D113681B6803F0010300E00B4646
:10138000002B40F0B580C368012B1368D3F8B04040
:1013900007D0012503689D40AC431368C3F8B040F3
:1013A0002DE0012503689D402C431368C3F8B0402D
:1013B00003680A2B136811D39B6907240568093D4C
:1013C00005EB4505AC40A34384680568093D05EB82
:1013D0004505AC4023431468A36110E05B69072412
:1013E00005686D1C05EB4505AC40A34384680568A2
:1013F0006D1C05EB4505AC4023431468636103682D
:10140000102B03D13D4B1B681B020DD50368112B1C
:1014100003D13A4B1B68DB0106D50368122B67D159
:10142000364B1B685B0263D41368B3F1A04F02D143
:10143000DFF8CC4001E04FF0A0449B6803F00303C9
:10144000012B04D113681B6803F0010300E00B4675
:10145000002B42D1A36803F00303012B03D12368BF
:1014600003F0010300E00B46002B36D10368102B7C
:101470001BD11368B3F1A04F17D12048006840F486
:1014800000001E4B1860DFF804020068DFF800322D
:10149000B0FBF3F000EB80035800009000980028A8
:1014A00026D00098401E0090F8E70368112B0AD15F
:1014B0001368B3F1A04F06D11048006840F0807067
:1014C0000E4B186014E00068122811D10B48006818
:1014D00040F48000094B18600AE0106C40F02000D6
:1014E0001064012104E0106C40F020001064012120
:1014F000002082F83C00084672BC70470803005088
:101500000001005030B400220368B3F1A04F02D1B3
:10151000DFF8844101E04FF0A04490F83C30012B0B
:1015200001D102206DE0012380F83C3003689B6804
:101530005B075DD4A3685B075AD40B68002B30D0DF
:10154000544B1D6825F460454B681D4390F83030BE
:1015500045EA43354F4B1D6003689B6803F0030366
:10156000012B04D103681B6803F0010300E013465C
:10157000002B42D1A36803F00303012B03D123689E
:1015800003F0010300E01346002B36D1414B1C68E9
:10159000424B1C400B681C4389680C433D490C605E
:1015A0002BE03C49096821F460413A4B196001681D
:1015B000896801F00301012904D10168096801F07B
:1015C000010100E01146002917D1A16801F00301D3
:1015D000012903D1216801F0010100E01146002931
:1015E0000BD119460B682D490B402A490B6004E0CA
:1015F000016C41F0200101640122002180F83C10BF
:10160000104630BC704738B504462068806800F04A
:101610000300012804D12068006800F0010000E008
:10162000002000282ED02068806800F00D000128DE
:101630001ED12068806840F0020021688860032085
:101640002168086000F02CF8054620688068C00713
:1016500018D500F025F8401B0328F6D3206C40F085
:1016600010002064606C40F001006064012032BD15
:10167000206C40F010002064606C40F00100606459
:10168000012032BD002032BD00F0FF8304000020A5
:1016900040420F000803005000010050E0F0FFFF3F
:1016A00001480068704700BF200200207CB504009C
:1016B00000F007822078C0071ED5DFF8A00500687B
:1016C00000F00C0004280ED0DFF89005006800F050
:1016D0000C00082857D1DFF88405006800F480303A
:1016E000B0F5803F4FD1DFF870050068800303D567
:1016F0006068002800F0E5812078800727D5DFF8B2
:101700005C05006810F00C0F0DD0DFF85005006884
:1017100000F00C00082840F09980DFF840050068D0
:10172000C00300F19380DFF830050068800703D51F
:101730002069012840F0C581DFF81C05006820F011
:10174000F800616940EAC100DFF80C1508602078F4
:10175000000740F1C180A069002800F0AB800120A3
:10176000DFF80C150860FFF79BFF0546DFF804055E
:101770000068800700F1B080FFF792FF401B03284C
:10178000F4D3032076BD6068B0F5803F08D1DFF860
:10179000C804006840F48030DFF8BC1408602AE018
:1017A00000280DD1DFF8B004006820F48030DFF8A5
:1017B000A81408600846006820F4802008601AE039
:1017C000B0F5A02FDFF8900400680AD140F4802023
:1017D000DFF8841408600846006840F48030086030
:1017E00009E020F48030DFF87014086008460068D3
:1017F00020F480200860DFF8740401680909A068FB
:1018000050EA0111DFF864040160606800280ED01E
:10181000FFF746FF0546DFF84004006880033FF508
:101820006BAFFFF73DFF401B6528F4D3A9E7FFF737
:1018300037FF0546DFF82004006880037FF55CAFC2
:10184000FFF72EFF401B6528F4D39AE72069002894
:101850001DD00120DFF820140860FFF721FF0546A6
:10186000DFF8F4030068800705D4FFF719FF401B79
:101870000328F5D385E7DFF8E003006820F0F800DF
:10188000616940EAC100DFF8D01308605FE700201B
:10189000DFF8E4130860FFF703FF0546DFF8B8033D
:1018A000006880077FF553AFFFF7FAFE401B03285F
:1018B000F4D366E70020DFF8B8130860FFF7F0FE06
:1018C0000546DFF8B0030068800705D5FFF7E8FE9E
:1018D000401B0328F5D354E72078400740F193805C
:1018E0000025DFF898030068C0000ED4DFF88C03F1
:1018F000006840F08050DFF88413086008460068F4
:1019000000F08050009000980125DFF87403006813
:10191000C00515D4DFF86803006840F48070DFF874
:1019200060130860FFF7BCFE0646DFF8540300684A
:10193000C00505D4FFF7B4FE801B6528F5D320E76A
:10194000E068012808D1DFF83C03006840F001009E
:10195000DFF83013086029E000280DD1DFF82403F8
:10196000006840084000DFF81C1308600846006863
:1019700020F00400086019E00528DFF8080300687B
:101980000AD140F00400DFF8FC1208600846006845
:1019900040F00100086009E040084000DFF8E41270
:1019A00008600846006820F004000860E06800282D
:1019B0000FD0FFF775FE0646DFF8C8020068800703
:1019C00017D4FFF76DFE801B41F289318842F3D3B3
:1019D000D7E6FFF765FE0646DFF8A8020068800735
:1019E00007D5FFF75DFE801B41F289318842F3D3B2
:1019F000C7E6012D07D1DFF88402006820F080508F
:101A0000DFF878120860E06900285CD0DFF84C024B
:101A1000006800F00C000828E06943D002282FD1AC
:101A20000020DFF864120860FFF73AFE0546DFF891
:101A300028020068800105D5FFF732FE401B03280D
:101A4000F5D39EE6DFF81402006820F47410616A92
:101A50000843216A0843DFF8041208600120DFF818
:101A600028120860FFF71CFE0446DFF8EC0100684E
:101A7000800128D4FFF714FE001B0328F5D380E66D
:101A80000020DFF804120860FFF70AFE0446DFF8C2
:101A9000C8010068800116D5FFF702FE001B03286D
:101AA000F5D36EE601280CD0DFF8B001006800F431
:101AB0008031226A914204D100F47010616A884238
:101AC00001D0012076BD002076BD70B504460D46DC
:101AD000002C62D0DFF8B401006800F00700A842D3
:101AE0000DD2DFF8A8010068C00855EAC0006749B8
:101AF00008600846006800F00700A8424DD1207831
:101B0000800707D55548016821F0F001A06801431E
:101B1000524801602078C0072CD56068012804D1A4
:101B20004D480068800309D437E002284A4800681D
:101B300002D1800102D430E080072ED547480168E9
:101B40008908606850EA810144480160FFF7A8FDF8
:101B500006464248006800F00C006168B0EB810F57
:101B600008D0FFF79DFD801B41F289318842F0D3F8
:101B7000032070BD4548006800F0070085420ED282
:101B800042480068C00855EAC0004049086008465D
:101B9000006800F00700A84201D0012070BD207845
:101BA000400707D52D48016821F4E061E068014352
:101BB0002A4801602078000708D52848006820F4EA
:101BC0006050216940EAC1002449086000F00FF824
:101BD0002F49224A1268C2F30312895CC840214986
:101BE00008602148006800F05DF8002070BD1B48C7
:101BF000016801F00C00082813D12648C1F3834284
:101C0000805C254A194B1B6803F00F03D25CC903A3
:101C100004D51349B1FBF2F1484370471F494843CB
:101C200070470F4870470F480068704780B5FFF74E
:101C3000FAFF1B49094A1268C2F30222895CC840B4
:101C400002BD80B5FFF7EFFF1549044A1268C2F3E1
:101C5000C222895CC84002BD00100240041002404C
:101C600000127A0004000020000000202C10024026
:101C70008004424224100240000042421C100240F4
:101C800000700040201002406000424200200240EC
:101C9000C02B0008A02B0008B02B000800093D0055
:101CA000EC2B000810B504464FF47A700D49097802
:101CB000B0FBF1F00C490968B1FBF0F000F07FF8DF
:101CC000002801D0012010BD102C09D2002221468D
:101CD0004FF0FF3000F064F804480460002010BDAD
:101CE000012010BD0800002004000020000000209A
:101CF00033490A684FF6FF010A40000200F4E06031
:101D00001043304908432E49086070472C4800684A
:101D1000C0F302207047020003D409012A4A11547B
:101D200070470901294A00F00F00104400F8041C14
:101D3000704710B400F00700C0F10703052B00D373
:101D40000423041D072C01D2002000E0C01E012442
:101D500004FA03F35B1E19408140234603FA00F0A6
:101D6000401E1040084310BC704710B50446601E6A
:101D7000B0F1807F0CD2164908600F214FF0FF3080
:101D8000FFF7C9FF002013490860072012490860C7
:101D9000641EB4F1807F8041C043C00F10BDA7E72F
:101DA00070B504460D461646FFF7B0FF3246294689
:101DB000FFF7BFFF01462046BDE87040ABE7D4E720
:101DC0000CED00E00000FA0500E400E018ED00E092
:101DD00014E000E018E000E010E000E080B500F062
:101DE00013FA00F028F800F0BBF900F0BAF800F0A0
:101DF0001FF900F083F900F06BF800F0DBF800F059
:101E000094F90021DFF8C403FEF7A8FA0421DFF8F3
:101E1000BC03FEF7A3FADFF8B80300F009FA41F2B9
:101E2000883000F05BFADFF8A80300F013FA0A200C
:101E300000F054FAF7E700B595B0002228210BA86E
:101E400000F060FA00221421684600F05BFA0022DC
:101E5000182105A800F056FA02200B9001200F90DF
:101E60001020109002201290002013904FF4601068
:101E700014900BA8FFF71AFC002801D000F0C2F95B
:101E80000F20009002200190002002904FF480600B
:101E900003904FF4C060049002216846FFF715FEDE
:101EA000002801D000F0AEF941F2A1000590002019
:101EB00007904FF480700990002008900A9005A8C0
:101EC00000F03EFA002801D000F09CF915B000BDEA
:101ED00000B589B000220C2106A800F013FA0022F8
:101EE0001821684600F00EFA4FF0A040B94908608A
:101EF0000020486088600861487681F82000C86248
:101F0000012088620020C8600120C861002081F89B
:101F10003000042048610020087648630846FFF737
:101F20000BF8002801D000F06DF90020069006A9FA
:101F3000A848FFF7E7FA002801D000F063F9012074
:101F40000090019000200390029004900590694653
:101F5000A048FFF705F9002801D000F053F909B0B7
:101F600000BD80B59C489D4908609D4848600020A0
:101F700088600120C8600020086148618861C861EC
:101F80000862084600F07CFA002801D000F03AF917
:101F90000021924800F0D6FA002801D000F032F972
:101FA00000218E4800F0FFFA002802D0BDE8014071
:101FB00028E101BD00B587B000220C21684600F081
:101FC000A1F90022102103A800F09CF98548864958
:101FD00008600020486088604FF6FF70C8600020ED
:101FE0000861486188610846FEF730F9002801D091
:101FF00000F008F9002000900190029069467A48AC
:1020000000F000FB002801D000F0FCF80020039055
:1020100001200490002005900690024603A9724812
:10202000FEF7F8F9002801D000F0ECF807B000BD89
:1020300000B593B0002224210AA800F063F9002221
:102040000C21684600F05EF900221C2103A800F074
:1020500059F966485D4908600020486088604FF67D
:10206000FF70C86000200861802088610846FEF784
:10207000BCF8002801D000F0C5F803200A90002029
:102080000B9001200C9008200D9000200E900F90D6
:102090000120109008201190002012900AA94B48AE
:1020A000FEF705F9002801D000F0ACF80020009000
:1020B00002906946454800F0A5FA002801D000F0DA
:1020C000A1F860200390002004900590079008225A
:1020D00003A93E48FEF7FDF9002801D000F092F870
:1020E0000C2203A93948FEF7F4F9002801D000F0CA
:1020F00089F83648FEF7A6FD13B000BD80B53C4810
:102100003C49086079204860002088600120C86050
:1021100000200861486188610846FEF735F800280C
:1021200002D0BDE801406DE001BD80B532483349C1
:1021300008604FF41640486000208860C86008615D
:102140000C20486100208861C86108624862084626
:1021500000F098FA002802D0BDE8014052E001BD2D
:1021600080B586B00022142101A800F0CBF82448E5
:10217000006840F48000224908600846006800F4C6
:102180008000009000980846006840F40030086025
:102190000846006800F40030009000980846006887
:1021A00040F4802008600846006800F48020009019
:1021B000009870200190002002900220039001A955
:1021C0004FF09040FEF7BAFD07B000BD7801002047
:1021D000100200209000002000540040E000002089
:1021E0000E090020002C01402C01002000040040BA
:1021F00000440140C4010020003801400C000020D0
:102200001410024072B6FEE780B50848006840F03E
:102210001000064908600320FFF7C1FD0020FFF70A
:1022200041FDFEF711FC002002BD0000002002402D
:1022300000210160416002210172B0F90A100029F9
:1022400001D100214181B0F90C10002901D1642194
:1022500081817047204909680160416802689142A4
:102260000ADA0A460168521A012A02DB01210172C8
:1022700013E00021017210E01146426891420ADA2F
:102280000A464168521A012A02DB0021017204E069
:102290000121017201E002210172017A00290BD1B2
:1022A000C189491CC181B0F90C10B0F90E209142CE
:1022B00000DD1146C1810CE001290AD1C189491E06
:1022C000C181B0F90A10B0F90E20914200DA11462E
:1022D000C1810168416070472404004038B504465C
:1022E000FFF7DEF9054614F1010F02D0044800782B
:1022F0002418FFF7D5F9401BA042FAD331BD00BF27
:102300000800002062F30F2262F31F4200B500BFF5
:10231000130096469446103928BFA0E80C50FAD80E
:102320005FEA417C28BF0CC048BF40F8042BC907B6
:1023300028BF20F8022B48BF00F8012B00BD000089
:102340007CB5044600252068C0035ED54648006879
:10235000C0000CD44448006840F0805042490860F6
:102360000846006800F080500090009801253F4822
:102370000068C00513D43D48006840F480703B49B4
:102380000860FFF78DF9064638480068C00506D496
:10239000FFF786F9801B6528F6D3032076BD344805
:1023A000006810F4407020D0616801F440718842E8
:1023B0001BD02F48006820F4407001212D4A116085
:1023C000002111602A490860C0070ED5FFF768F99F
:1023D000064627480068800707D4FFF761F9801B8D
:1023E00041F289318842F4D3D7E72148016821F4CA
:1023F0004071606801431E480160012D05D11A48F3
:10240000006820F08050184908602078C00707D580
:10241000194801688908A06850EA810116480160DE
:102420002078800607D51448016821F01001E06883
:102430000143114801602078000607D50F48016864
:1024400021F4F871206901430C4801602068C00440
:1024500007D50948016821F4807160690143064885
:102460000160002076BD00001C100240007000409A
:102470002010024040044242301002402C10024022
:1024800010B5040001D1012010BD94F841000028CE
:1024900005D1002084F840002046FEF724FB2420CC
:1024A00084F8410020680068400840002168086006
:1024B000606820F07060216808612068806820F4FE
:1024C000004021688860E0680128A06804D140F4D9
:1024D00000402168886003E040F40440216888607F
:1024E000E068022803D14FF400602168486020684A
:1024F000406840F0007040F4004021684860206867
:10250000C06820F400402168C86021696069014307
:10251000A06941EA00212068C160E169206A0143A5
:10252000206801602068006840F0010021680860B0
:1025300000206064202084F841000020206384F89B
:10254000420010BD90F84120202A2AD190F8402066
:10255000012A01D102207047012280F84020242264
:1025600080F84120026812685208520003681A601D
:102570000268126822F4805203681A6002681268C6
:102580001143026811600168096841F001010268A5
:102590001160202180F84110002180F84010084689
:1025A00070470220704790F84120202A27D190F8E8
:1025B0004020012A01D102207047012280F84020EA
:1025C000242280F8412002681268520852000368F1
:1025D0001A600268126822F4706242EA01220168FD
:1025E0000A600168096841F0010102681160202158
:1025F00080F84110002180F8401008467047022002
:102600007047000030B490F83C20012A01D102202C
:102610002FE0012280F83C20022280F83D20026851
:1026200054689368144DAA4203D124F470044A6894
:10263000144324F070040A6814430268546002686A
:102640002C46A24208D0B2F1804F05D00B4CA242DA
:1026500002D00B4CA24205D123F0800389680B43C2
:1026600011468B60012180F83D10002180F83C105C
:10267000084630BC70470000002C014000040040B8
:102680000040014010B5040015D0A06F002805D10E
:10269000002084F874002046FEF7FBFA2420A0678F
:1026A000206800684008400021680860204600F06B
:1026B00021F8012801D1012010BD606A002802D054
:1026C000204600F0D1F82068406820F4904021684E
:1026D00048602068806820F02A00216888602068AF
:1026E000006840F00100216808602046BDE8104005
:1026F00000F027B938B50446002520680168544821
:102700000140A06801432069014360690143E06919
:102710000143206801602068416821F44051E0686D
:102720000143206841602068816821F43061A0691C
:102730000143206A0143206881602068454988423E
:1027400013D14548006800F0030003280BD8DFE8E8
:1027500000F002060804284612E0022010E00420DF
:102760000EE008200CE010200AE03C49884201D12C
:10277000284605E03A49884201D1284600E0102069
:10278000E169B1F5004F32D1082814D8DFE800F034
:1027900005080B130D1313131000FFF747FA0CE095
:1027A000FFF74FFA09E02F4807E0FFF720FA04E0AF
:1027B0004FF4004001E028460125002842D061681E
:1027C000490801EB40016068B1FBF0F080B2A0F174
:1027D00010014FF6F072914207D211460140C0F34A
:1027E000420001432068C1602CE001252AE008284E
:1027F00014D8DFE800F005080B130D1313131000B5
:10280000FFF714FA0CE0FFF71CFA09E0154807E09F
:10281000FFF7EDF904E04FF4004001E02846012500
:1028200000280FD0616800EB5100B0FBF1F080B2DE
:10283000A0F110014FF6F072914202D22168C860F7
:1028400000E0012500206066A066284632BD000039
:10285000F369FFEF003801403010024000440040AF
:102860000048004000127A0090F82410C90707D5EC
:1028700001684A6822F40032816A0A4301684A60AA
:1028800090F82410890707D501684A6822F480323D
:10289000C16A0A4301684A6090F82410490707D5C5
:1028A00001684A6822F48022016B0A4301684A6089
:1028B00090F82410090707D501684A6822F40042FD
:1028C000416B0A4301684A6090F82410C90607D595
:1028D00001688A6822F48052816B0A4301688A6029
:1028E00090F82410890607D501688A6822F40052FE
:1028F000C16B0A4301688A6090F82410490613D519
:1029000001684A6822F48012016C0A4301684A6037
:10291000016CB1F5801F07D101684A6822F4C0023A
:10292000416C0A4301684A6090F82410090607D5F3
:1029300001684A6822F40022816C0A430068426000
:10294000704738B504460020C4F88000FEF7A8FEA2
:1029500005462068006800070BD56FF07E400090A8
:102960002B4600224FF40011204600F01CF80028EE
:102970000FD12068006840070DD56FF07E400090B1
:102980002B4600224FF48001204600F00CF800286E
:1029900001D0032032BD2020A067E0670020206620
:1029A00084F8740032BD2DE9F04105460E46174605
:1029B0009846069C2868C0693040B04201D1012089
:1029C00000E000203946884241D114F1010FF1D0D6
:1029D000FEF766FEA0EB0800844201D3002C14D160
:1029E0002868006820F4D07029680860286880682A
:1029F00040084000296888602020A867E867002018
:102A000085F874000320BDE8F0812868006840075D
:102A1000D0D52868C0690005CCD54FF4006029687E
:102A200008622868006820F4D07029680860286867
:102A3000806840084000296888602020A867E8670F
:102A4000C5F88000002085F874000320DBE7002033
:102A5000D9E730B4002512E050F8042BD30744BF67
:102A60004A44521E091F042942F8045BFAD2134655
:102A70008C0744BF15809B1CC90748BF1D7050F8C8
:102A8000041B0029E8D130BC7047000010B507498D
:102A900079441831064C7C44163404E00A68081D59
:102AA000114488470146A142F8D110BD2C00000016
:102AB0004C0000004EF68851CEF20001086840F448
:102AC00070000860BFF34F8FBFF36F8F4FF000703F
:102AD000E1EE100A704700007BFFFFFF18020000C4
:102AE0000C0000200000000037DFFFFF0C0000009A
:102AF000F0000000000000200000000000F00DF8D1
:102B0000002801D0FFF7C2FFAFF300800020AFF331
:102B10000080FFF763F900F002F80120704700F031
:102B200001B800000746384600F002F8FBE7000055
:102B300080B5AFF30080024A11001820ABBEFBE75E
:102B4000260002000548014603B4684680F3098860
:102B5000AFF30080FFF7AEFFFFF7D0FFA5EDF5FE66
:102B60000348006803490978401801490860704724
:102B70002002002008000020FEE7FEE7FEE7FEE757
:102B8000FEE7704770477047FFF7EABF03480068E9
:102B900040F47000014908607047000088ED00E0D3
:102BA00002030405060708090A0B0C0D0E0F10108E
:102BB0000102030405060708090A0B0C0D0E0F108D
:102BC00000000000000000000102030406070809DD
:102BD00001488047014800478D2B0008452B00081D
:102BE0001000000000127A00010000000000000048
:102BF00001020304FFF7FEBFFFF7FEBFFFF7FEBFB2
:102C0000FFF7FEBFFFF7FEBFFFF7FEBFFFF7FEBFF8
:102C1000FFF7FEBFFFF7FEBFFFF7FEBFFFF7FEBFE8
:102C2000FFF7FEBFFFF7FEBFFFF7FEBFFFF7FEBFD8
:102C3000FFF7FEBFFFF7FEBFFFF7FEBFFFF7FEBFC8
:102C4000FFF7FEBFFFF7FEBFFFF7FEBFFFF7FEBFB8
:102C5000FFF7FEBFFFF7FEBFFFF7FEBFFFF7FEBFA8
:102C6000FFF7FEBFFFF7FEBFFFF7FEBFFFF7FEBF98
:102C7000FFF7FEBFFFF7FEBFFFF7FEBFFFF7FEBF88
:102C8000FFF7FEBFFFF7FEBFFFF7FEBFFFF7FEBF78
:102C9000FFF7FEBFFFF7FEBFFFF7FEBFFFF7FEBF68
:0400000508002B457F
:00000001FF
