:020000040800F2
:10000000580C0020C59600087D9400087F940008D5
:100010008194000883940008859400080000000083
:1000200000000000000000000000000087940008AD
:1000300089940008000000008B9400088D9400084B
:10004000ED960008F1960008F5960008F99600086C
:10005000FD96000801970008059700080997000819
:100060000D97000811970008159700080F950008D4
:10007000199700081D970008219700082597000888
:10008000299700082D970008319700083597000838
:10009000399700083D9700084197000845970008E8
:1000A000499700084D970008519700085597000898
:1000B0001595000859970008000000005D9700089A
:1000C000619700080000000000000000659700082C
:1000D00000000000699700086D97000871970008FC
:1000E00075970008799700080000000000000000E4
:1000F0000000000000000000000000000000000000
:1001000000000000000000000000000000000000EF
:1001100000000000000000007D97000881970008A3
:1001200000000000000000000000000000000000CF
:1001300000000000000000000000000000000000BF
:100140008597000889970008000000000000000063
:10015000000000000000000000000000000000009F
:10016000000000000000000000000000000000008F
:10017000000000000000000000000000000000007F
:10018000000000008D970008000000000000000043
:10019000000000000000000000000000000000005F
:1001A000000000000000000000000000000000004F
:1001B000000000000000000000000000E003E00379
:1001C000E003E003E003E003E003E003C003C00357
:1001D000C001C001C001C001C0010000000000005A
:1001E000E003E003E0030000000000000000000066
:1001F0003C1E3C1E3C1E3C1E3C1E3C1E3C1E000089
:1002000000000000000000000000000000000000EE
:1002100000000000000000000000000000000000DE
:1002200000000000CE01CE03DE039E039C039C076A
:10023000FF3FFF7F3807380F780F780F780EFFFFEA
:10024000FFFFF01EF01CE01CE03CE03DE039000048
:100250000000000000000000FC03FE0FEE1FE01E87
:10026000E01EE01EE01EE01FE00FE007F003FC01CF
:10027000FE01FE01FE01FE01FE01FE01FE3DFC3F0E
:10028000F00FE001E001000000000000033E07F76E
:100290008FE78EE79EE3BCE3B8E7F8E7F0F7E03FCF
:1002A000C001FF03FF07F307F30FF31EF33CF3381E
:1002B000F3787FF03FE00000000000000000000045
:1002C000E007F80F780F781F781F781F780FF00F6E
:1002D000E00F801FC37FC3FBE7F3F7F1F7F0FFF0F8
:1002E0007FF03EF87F7CFF3FEF1F00000000000022
:1002F00000000000E003E003E003E003E003C003CC
:10030000C00100000000000000000000000000002C
:1003100000000000000000000000000000000000DD
:1003200000000000000000003F007C00F001E00140
:10033000C003C00780078007800F000F000F000F69
:10034000000F000F000F800F80078007C007C00359
:10035000E001F0017C003F000F000000007E001F64
:10036000C007C003E001F001F000F000F8007800E1
:1003700078007800780078007800F800F000F0004D
:10038000F001E001C003C007001F007E00780000FC
:10039000E003C003C001CE39FF3F7F3F200370035D
:1003A000F807780F3C1F380600000000000000002E
:1003B000000000000000000000000000000000003D
:1003C000000000000000000000000000000000002D
:1003D000C001C001C001C001C001C001C001FFFFD8
:1003E000FFFFC001C001C001C001C001C001000089
:1003F00000000000000000000000000000000000FD
:1004000000000000000000000000000000000000EC
:1004100000000000000000000000E003E003E00333
:10042000E003E001E001E001C00180030000000002
:1004300000000000000000000000000000000000BC
:100440000000FE3FFE3F0000000000000000000032
:10045000000000000000000000000000000000009C
:10046000000000000000000000000000000000008C
:10047000000000000000000000000000000000007C
:100480000000E003E003E003E003000000000000E0
:10049000000000000F000F001E001E003C003C008A
:1004A00078007800F000F000E001E001C003C00334
:1004B00080078007000F000F001E001E003C003C5C
:1004C0000078007800F00000F007F80F7C1F3E3E37
:1004D0001E3C1F7C1F7C0F780F780F780F780F78E9
:1004E0000F780F781F7C1F7C1E3C3E3E7C1FF80F50
:1004F000F00700000000000000000000F000F0071E
:10050000F03FF03FF001F001F001F001F001F001E7
:10051000F001F001F001F001F001F001F001F00153
:10052000F001FF3FFF3F000000000000000000005E
:10053000E00FF83F7C3C3C003E003E003E003C00AB
:100540003C007C00F800F001E003C0078007000FCA
:10055000001E003E003CFE3FFE3F00000000000089
:1005600000000000F00FF81F7C1C3E003E003E0023
:100570003C003C00F800F00FF80F7C003E001E002D
:100580001E001E001E003E007C1CF81FE01F000025
:1005900000000000000000007800F800F800F801FA
:1005A000F803F807F807780F781E781E783C7878FB
:1005B0007878FFFFFFFF78007800780078007800F7
:1005C000780000000000000000000000FC1FFC1F7D
:1005D000FC1F001E001E001E001E001EE01FF81F54
:1005E000FC007C003E003E001E003E003E003C0041
:1005F0007C1CF81FE01F000000000000000000004D
:10060000FC01FE078E0F001F001E003E003C003C58
:10061000F83DFC3F3E7F1F7E0F3C0F3C0F3C0F3CE4
:100620000F3E1F1E3E1FFC0FF003000000000000E5
:1006300000000000FF3FFF3FFF3F0F001E001E00B5
:100640003C0038007800F000F000E001E001C00359
:10065000C0038007800F800F000F001F001F0000E5
:100660000000000000000000F807FC0F3E1F1E1EE7
:100670001E3E1E3E1E1E3C1FF80FF007F80FFC1E0C
:100680003E3E1F3C1F7C0F7C0F7C1F3C3E3FFC1FEF
:10069000F00700000000000000000000F007F80F65
:1006A0007C1E3E3C1E3C1F7C1F7C1F7C1F7C1F3C15
:1006B0003F3EFF1FEF071F001E001E003E003C00D4
:1006C000F838F03FE01F00000000000000000000CC
:1006D000000000000000000000000000E003E00354
:1006E000E003E00300000000000000000000000044
:1006F0000000E003E003E003E0030000000000006E
:1007000000000000000000000000000000000000E9
:10071000E003E003E003E00300000000000000004D
:10072000000000000000E003E003E003E003E0015C
:10073000E001E001C00380030000000000000000B1
:100740000000000003000F003F00FC00F003C00F9A
:10075000003F00FE003FC00FF003FC003F000F0011
:100760000300000000000000000000000000000086
:100770000000000000000000000000000000000079
:10078000FFFFFFFF000000000000FFFFFFFF000071
:100790000000000000000000000000000000000059
:1007A00000000000000000000000000000E000F871
:1007B000007E801FE007F8017E001F007E00F80128
:1007C000E007801F007E00F800E00000000000004D
:1007D00000000000F01FFC3F3E381F381F381E008D
:1007E0001E003C007800F000E001C003C003C00719
:1007F000C007000000000000C007C007C0070000DD
:100800000000000000000000F803FE0F1E1F0F3E56
:100810007F3CFF78EF79C773C7F38FF38FF38FF3C4
:100820009FF39FF3FF73FF7BF779003C1C1FFC0FC6
:10083000F8030000000000000000000000000000BD
:100840000000E003E003F007F007F007780F780FEF
:100850007C0E3C1E3C1E3E3CFE3FFF3F1F780F7847
:100860000FF007F007F0000000000000000000009B
:10087000000000000000F83FFC3F3E3C1E3C1E3CD8
:100880001E3C3E3C7C3CF03FF83F7E3C1F3C1F3C06
:100890000F3C0F3C1F3CFE3FF83F000000000000F3
:1008A00000000000000000000000FF01FF07871F9C
:1008B000003E003C007C00780078007800780078EA
:1008C000007C007C003E003F831FFF07FF0100000B
:1008D0000000000000000000000000000000F07FA9
:1008E000FC7F7E781F781F780F780F780F780F784D
:1008F0000F780F780F780F781F781E787E78F87F42
:10090000E07F000000000000000000000000000088
:100910000000FF3FFF3F003E003E003E003E003E25
:10092000003EFE3FFE3F003E003E003E003E003ED9
:10093000003EFF3FFF3F00000000000000000000FD
:10094000000000000000FF1FFF1F001E001E001E11
:10095000001E001E001EFF1FFF1F001E001E001EA7
:10096000001E001E001E001E001E000000000000F1
:1009700000000000000000000000FE03FF0F871FC2
:10098000003E007C007C007800F800F87FF87FF8DB
:100990000F780F7C0F7C0F3E8F1FFF0FFE030000B0
:1009A00000000000000000000000000000001F7CAC
:1009B0001F7C1F7C1F7C1F7C1F7C1F7C1F7CFF7F7C
:1009C000FF7F1F7C1F7C1F7C1F7C1F7C1F7C1F7C6C
:1009D0001F7C00000000000000000000000000007C
:1009E0000000FF3FFF3FE003E003E003E003E0031C
:1009F000E003E003E003E003E003E003E003E003DF
:100A0000E003FF3FFF3F0000000000000000000087
:100A1000000000000000FC1FFC1F7C007C007C002C
:100A20007C007C007C007C007C007C007C007C00E6
:100A300078007800F838F03FC03F00000000000068
:100A4000000000000000000000001F3C1E3C3C3C79
:100A5000783CF03CE03DE03FC03F803FC03FE03F9E
:100A6000F03DF03C783C7C3C3E3C1F3C0F3C0000A1
:100A70000000000000000000000000000000003E38
:100A8000003E003E003E003E003E003E003E003E76
:100A9000003E003E003E003E003E003E003EFF3F66
:100AA000FF3F000000000000000000000000000008
:100AB00000001FF81FFC1FFC3FFE3FFE3FFE7FFFB4
:100AC00077FF77FFF7F7E7F7E7F3E7F3C7F307F009
:100AD00007F007F007F00000000000000000000031
:100AE0000000000000000F7C0F7C0F7E0F7F0F7F47
:100AF0008F7F8F7FCF7FEF7BEF79FF79FF78FF7854
:100B00007F783F783F781F781F7800000000000052
:100B100000000000000000000000F007FC1F3E3E47
:100B20001F7C0F780F780FF80FF80FF80FF80FF8F9
:100B30000FF80F780F781F7C3E3EFC1FF007000077
:100B40000000000000000000000000000000FC3F6A
:100B5000FF3F1F3E0F3E0F3E0F3E0F3E1F3E3F3EEC
:100B6000FC3FF03F003E003E003E003E003E003EA7
:100B7000003E000000000000000000000000000037
:100B80000000F007FC1F3E3E1F7C0F780F780FF827
:100B90000FF80FF80FF80FF80FF80F780F781F7C89
:100BA0003E3EFC1FF8077C003F000F0003000000E2
:100BB000000000000000F03FFC3F7E3C3E3C1E3C3D
:100BC0001E3C3E3C3C3CFC3CF03FE03FF03DF83CF2
:100BD0007C3C3E3C1E3C1F3C0F3C000000000000E3
:100BE00000000000000000000000FC07FE1F0E3E99
:100BF000003C003C003C003EC01FF80FFE037F009D
:100C00001F000F000F001F203E3CFC3FF01F0000A4
:100C10000000000000000000000000000000FFFFD6
:100C2000FFFFE003E003E003E003E003E003E00391
:100C3000E003E003E003E003E003E003E003E0039C
:100C4000E0030000000000000000000000000000C1
:100C500000000F7C0F7C0F7C0F7C0F7C0F7C0F7CC7
:100C60000F7C0F7C0F7C0F7C0F7C0F7C1E3C1E3C8E
:100C70003E3EFC1FF00700000000000000000000E6
:100C800000000000000007F007F007F80F780F7C65
:100C90001E3C1E3C1E3E3C1E3C1F781F780FF80F6A
:100CA000F007F007F007E003E00300000000000099
:100CB0000000000000000000000003E003F003F06B
:100CC00007F0E7F3E7F3E7F3E773F77BF77FFF7FDF
:100CD0007F7F7F7F7E7F7E3F3E3E3E3E3E3E0000EA
:100CE000000000000000000000000000000007F805
:100CF0000F7C1E3E3E3E3C1FF80FF007E007E0036E
:100D0000E003F007F80F7C0F7C1E3E3C1F780F7845
:100D10000FF00000000000000000000000000000D4
:100D2000000007F807780F7C1E3C1E3E3C1F780F22
:100D3000F80FF007E003E003E003E003E003E00363
:100D4000E003E003E00300000000000000000000FA
:100D5000000000000000FF7FFF7F0F001F003E002B
:100D60007C00F800F000E001E003C007800F000FF6
:100D7000001E003E007CFF7FFF7F0000000000009F
:100D800000000000FF0780078007800780078007BA
:100D9000800780078007800780078007800780071B
:100DA000800780078007800780078007800780070B
:100DB0008007FF07FF07000000780078003C003C38
:100DC000001E001E000F000F80078007C003C00335
:100DD000E001E001F000F000780078003C003C0009
:100DE0001E001E000F000F0007000000F07FF00043
:100DF000F000F000F000F000F000F000F000F00073
:100E0000F000F000F000F000F000F000F000F00062
:100E1000F000F000F000F000F000F07FF07F000044
:100E2000C000C001C001E003E003F007F00778074D
:100E3000780F380F3C1E3C1E1E3C1E3C0F380F78AE
:100E40000778000000000000000000000000000023
:100E50000000000000000000000000000000000092
:100E60000000000000000000000000000000000082
:100E70000000000000000000000000000000FFFF74
:100E8000FFFF000000000000F00000000000000074
:100E90000000000000000000000000000000000052
:100EA0000000000000000000000000000000000042
:100EB0000000000000000000000000000000000032
:100EC0000000000000000000F80FFC3F7C3C3E00EA
:100ED0003E003E00FE07FE1F3E3E3E7C3E783E7CCE
:100EE0007E7CFF3FCF1F00000000000000000000DC
:100EF000003C003C003C003C003C003CF83DFE3F18
:100F00003E3F1F3E0F3C0F3C0F3C0F3C0F3C0F3C45
:100F10001F3C1E3C3E3FFC3FF03B00000000000039
:100F200000000000000000000000000000000000C1
:100F3000FE03FF0F871F003E003E003C007C007C4C
:100F4000007C003C003E003E871FFF0FFE030000B8
:100F500000000000000000001F001F001F001F0015
:100F60001F001F00FF07FF1F3F3E1F3C1F7C1F7C11
:100F70001F7C1F781F781F7C1F7C3F3C7F3EFF1F1C
:100F8000DF0F000000000000000000000000000073
:100F90000000000000000000F803FC0F3E1F1E3E92
:100FA0001F3C1F7CFF7FFF7F007C007C003C003EDD
:100FB000071FFF0FFE0300000000000000000000FC
:100FC000FF01E103C003C007C007C007FF7FFF7F29
:100FD000C007C007C007C007C007C007C007C007D9
:100FE000C007C007C007C007C0070000000000001E
:100FF00000000000000000000000000000000000F1
:10100000EF07FF1F7F3E1F3C1F7C1F7C1F781F7850
:101010001F781F7C1F7C3F3C7F3EFF1FDF0F1E00A1
:101020001E001E007C38F83F003C003C003C003CA9
:10103000003C003CFC3DFE3F9E3F1F3F1F3E1F3CCF
:101040001F3C1F3C1F3C1F3C1F3C1F3C1F3C1F3CC8
:101050001F3C00000000000000000000F001F00153
:101060000000000000000000E07FE07FE001E00100
:10107000E001E001E001E001E001E001E001E00168
:10108000E001E001E00100000000000000000000BD
:10109000F800F8000000000000000000F83FF83FF2
:1010A000F800F800F800F800F800F800F800F80080
:1010B000F800F800F800F800F800F800F800F00078
:1010C000F071E07F003C003C003C003C003C003CF8
:1010D0001F3C3E3C7C3CF83CF03DE03DC03FC03F07
:1010E000E03FF03DF83C7C3C3E3C1F3C1F3C000098
:1010F0000000000000000000F07FF001F001F001AE
:10110000F001F001F001F001F001F001F001F00157
:10111000F001F001F001F001F001F001F001F00147
:10112000F0010000000000000000000000000000CE
:1011300000000000000000009EF7FFFFFFFFFFFF20
:10114000E7FBE7F9C7F1C7F1C7F1C7F1C7F1C7F18D
:10115000C7F1C7F1C7F10000000000000000000067
:10116000000000000000000000000000FC3DFE3F09
:101170009E3F1F3F1F3E1F3C1F3C1F3C1F3C1F3C10
:101180001F3C1F3C1F3C1F3C1F3C00000000000098
:10119000000000000000000000000000000000004F
:1011A000F007FC1F3E3E1F3C1F7C0F780F780F7826
:1011B0000F780F781F7C1F3C3E3EFC1FF00700009D
:1011C000000000000000000000000000000000001F
:1011D00000000000F83DFE3F3E3F1F3E0F3C0F3C2D
:1011E0000F3C0F3C0F3C0F3C1F3C1E3E3E3FFC3F64
:1011F000F83F003C003C003C003C003C000000008C
:101200000000000000000000EE07FE1F7E3E1E3CB6
:101210001E7C1E781E781E781E781E781E7C3E7CF2
:101220007E3EFE1FDE0F1E001E001E001E001E0062
:101230000000000000000000000000007F1FFF1FF2
:10124000E71FC71F871F001F001F001F001F001F71
:10125000001F001F001F001F001F000000000000F3
:10126000000000000000000000000000000000007E
:10127000FC07FE1F0E1E003E003E003FE01FFC0765
:10128000FE003E001E001E003E3CFC3FF01F000022
:1012900000000000000000000000000000008007C7
:1012A00080078007FF7FFF7F800780078007800718
:1012B000800780078007800780078007C007FF033B
:1012C000FF0100000000000000000000000000001E
:1012D00000000000000000001E3C1E3C1E3C1E3CA6
:1012E0001E3C1E3C1E3C1E3C1E3C1E3C3E3C7E3CAE
:1012F000FE3EFE1FDE0F00000000000000000000A8
:1013000000000000000000000000000007F00F785F
:101310000F781E3C1E3C1E3E3C1E3C1E780F780F74
:10132000F00FF007F007E003E0030000000000000A
:1013300000000000000000000000000000000000AD
:1013400003F0E3F1E3F3E7F3F7F3F7F3F77F777FE6
:101350007F7F7F7F7F7F3E3E3E3E3E3E3E3E0000A3
:10136000000000000000000000000000000000007D
:10137000000000000F7C1E3E3C3E3C1FF80FF007B3
:10138000F007E003F007F807F80F7C1E3E3E1F3C15
:101390001F780000000000000000000000000000B6
:1013A000000000000000000007F80F780F7C1E3CD2
:1013B0001E3C3C1E3C1E3C1F780FF80FF007F00748
:1013C000E003E003C003C003C0038007800F007F79
:1013D000000000000000000000000000FF3FFF3F91
:1013E0001F003E007C00F800F001E003C007800F02
:1013F000001F001E003CFF7FFF7F00000000000078
:1014000000000000FE01E003C003C003C003C003EE
:10141000E001E001E001C001C003803F803FC00364
:10142000C001E001E001E001C003C003C003C0034C
:10143000E003FE017E000000C001C001C001C00148
:10144000C001C001C001C001C001C001C001C00194
:10145000C001C001C001C001C001C001C001C00184
:10146000C001C001C001C001C0010000C03FE003D5
:10147000E001E001E001E001C001C003C003C001E0
:10148000E001FE00FE00E001C001C003C003C00196
:10149000E001E001E001E001E003C03F003F0000A7
:1014A000000000000000000000000000000000003C
:1014B000000000000000073FC77FE773FFF17EF0E8
:1014C000000000000000000000000000000000001C
:1014D000000000002DE9F14FAEB0924604910021CA
:1014E000389A8DF8432099460D910BE01AF8011BAC
:1014F00004982E9A90470028049000F06D860D986D
:10150000401C0D909AF8000058B12528EED100211A
:1015100000220791089209910A920B910C920020E7
:1015200004E00D9800F05ABE40F001001AF8011FC7
:101530002029F9D023290CD02B2904D02D2905D01E
:10154000302909D00BE040F00200EFE740F0040042
:10155000ECE740F00800E9E740F01000E6E72A2950
:101560000FD1D9F8002052F8041BC9F80020002937
:101570000F9103D549420F9140F004000AF1010A8E
:1015800014E00F92DFF85C3C0AE00F99994205DA0B
:1015900001EB810402EB4402303A0F920AF1010A96
:1015A0009AF80020A2F130010A29EED39AF800102F
:1015B0002E2903D04FF0FF320E922AE01AF8011FB5
:1015C0002A2909D1D9F8001051F8042BC9F80010C4
:1015D0000E920AF1010A1CE02D290CBF0AF1010A42
:1015E000002100220E92DFF8FC4B0CE00A0008D12B
:1015F0000E9AA24205DA02EB820503EB4503303B6B
:101600000E930AF1010A9AF80030A3F130020A2A77
:10161000ECD3ADF840000FF6D0309AF8001000F08F
:101620000FFF08B11AF8010B8DF842009DF8420037
:10163000682805D19AF8000068280CD1622106E0DC
:101640006C2804BF9AF800006C2804D171218DF831
:1016500042100AF1010A12A806901AF801BBBBF168
:1016600025012CD01C3900F0D781091F022940F236
:10167000D381133900F0E284093900F0CD81891E4D
:1016800000F07785491E00F02485491E022940F2AA
:10169000C381091F00F01D85491F00F03281491EDA
:1016A00000F0CC84491E00F0D880C91E0DD0891EE0
:1016B00000F0C484C91E00F0C18400F065BD25237C
:1016C0008DF84830012100F06ABDD9F8000050F8CB
:1016D000044BC9F80000002C059440F0AB809DF845
:1016E0004300002800F0A1804FF0FF340FF60030D7
:1016F00000F0B6FE201A40F06F8500F051BD0123C6
:101700006A4602A9304600F043FE002840F0648596
:101710006D1EF4D12E96079D12AF75B12E9E17F84F
:10172000012B02A9304600F023FE002801D46D1ED3
:10173000F5D100282E9640F04F850A9D3020002DCF
:101740008DF800000CDD2E9E01236A4602A930466A
:1017500000F01EFE002840F03F856D1EF4D12E964D
:10176000059F089D75B12E9E17F8012B02A93046E2
:1017700000F0FEFD002801D46D1EF5D100282E9644
:1017800040F02A850B9D3020002D8DF800000CDDE7
:101790002E9E01236A4602A9304600F0F9FD00287A
:1017A00040F01A856D1EF4D12E9605980899099D72
:1017B000471875B12E9E17F8012B02A9304600F08C
:1017C000D7FD002801D46D1EF5D100282E9640F0DB
:1017D00003850C9D3020002D8DF800000CDD2E9E21
:1017E00001236A4602A9304600F0D2FD002840F0ED
:1017F000F3846D1EF4D12E969DF8400041077FF5CD
:1018000081AE2020002C8DF800007FF77BAE2E9D4E
:1018100001236A4602A9284600F0BAFD002840F0DC
:10182000DB84641EF4D12E956CE60FF6C43005906F
:1018300000F0B6BC0E9D002D04D5204600F030FE11
:10184000044607E02A46204600F046FE002814BF62
:10185000041B2C46089400F0A3BCD9F8001051F8E2
:10186000040BC9F8001020F00004002121F0FF351E
:1018700012ABCDE902450593DDE9022306993C242C
:1018800013B90AB90E98A8B102F00F053035641EDD
:10189000EEB23A2E08DA120942EA03721B090D551C
:1018A00008BF002A02D105E02735F4E705980D1995
:1018B000A842E9D308190590C4F13C020E98089299
:1018C00082420ADABDF84010821A4FF6EF700140EA
:1018D0000A92ADF8401000F063BC002840F160842B
:1018E0009DF8400000F01400102840F059840F9B30
:1018F00007990A985B1A1B1A9A1A002A40F3508417
:101900009AE39DF8430020B14FF0FF340FF6B0206A
:10191000EEE69DF84200622860D0682817D06A2859
:101920003FD06C2806D0712847D074282CD07A2854
:101930001DD062E0D9F8001051F8040BC9F800106E
:10194000002866D14FF0FF340FF68C20D0E6D9F88E
:10195000001051F8040BC9F8001020B94FF0FF3403
:101960000FF67420C4E60D99018000F019BCD9F877
:10197000001051F8040BC9F80010002849D14FF0AD
:10198000FF340FF65420B3E6D9F8001051F8040BD9
:10199000C9F8001000283CD14FF0FF340FF6382072
:1019A000A6E6D9F8001051F8040BC9F8001080B968
:1019B0004FF0FF340FF620209AE6D9F8001051F8C6
:1019C000040BC9F8001020B94FF0FF340FF60820BF
:1019D0008EE60D9AD317C0E90023E1E3D9F8001091
:1019E00051F8040BC9F8001020B94FF0FF340FF67E
:1019F000E8107DE60D990170D2E3D9F8001051F896
:101A0000040BC9F8001020B94FF0FF340FF6C810CE
:101A10006EE60D990160C3E3D9F80020D21D22F0D3
:101A20000702C9F80020D2E900010832C9F80020F5
:101A3000CDE90201C80F02D007982D210AE0BDF8B8
:101A40004000810702D507982B2103E0C00705D588
:101A50000798202112AA1154401C079012A8079938
:101A6000DDE9024543184BF020006128059321AEC3
:101A70000BD00E98002802D506200E9005E001BF7D
:101A80004BF02000672801210E91DDE9020148009A
:101A90004015401C0A460DD109030BD0ABF161077C
:101AA00003201A2F089002D20FF648110DE00FF60E
:101AB00048110AE070B912030CD1ABF161070320A1
:101AC0001A2F08901CD30FF638110322184600F085
:101AD0002FFD65E3DDE902016A4600F07DFDCDE9F9
:101AE00002014BF02000612811D1059830210170CE
:101AF000821CBBF1610F05920CBF7821582102E0D6
:101B00000FF6F801E1E741700798801C0790DDE9C6
:101B1000020120F0000231F0004308BF002A02D188
:101B20000025002445E14BF02008B8F1610F40F09A
:101B300095800E98002847BF21210191401C0190FB
:101B4000019F7F1C2046294600220023DDE9024533
:101B500000F07AFD00998DF8842038BF85F00045AB
:101B6000091F002F00910DF1850034DD0646204647
:101B700029460022002300F081FD2BD21C2200F018
:101B800097FD04460D4600F031FEFF1F002F8046F2
:101B900009DD00F047FE02460B462046294600F0CC
:101BA00009FF04460D46F01D0721B8F1000F0CDDBA
:101BB000491E5EBF08F00F0200F8012D4FEA2818F9
:101BC000F3D502E0002200F8012D491EFAD5C61D0A
:101BD000002FCCDC30460DF18501401A01990546F5
:101BE0008842C8BF0D46002D0DF185062FD48542D1
:101BF00006DA0DF18500415D0829A8BF0F2000DA43
:101C00000020294621AA0A4400E06D1E12F801397D
:101C1000491E8342F9D00F2804D10DF18500425CA2
:101C2000521C4254002904D50098001D21AE6D1CA1
:101C30000090681E0BD431180A783032D3B23A2B98
:101C4000A4BF5A443A3A401E01F80129F4D50E982F
:101C5000002840F1AD80691E0E91A9E00099DFF8DF
:101C6000002747F29750414391FBF2F2009225F092
:101C70000045C2F10702002A04DD2046294600F093
:101C80004BFB0BE052420020DFF8D81600F044FB7B
:101C900002460B462046294600F0FEFE0446B8F1F7
:101CA000660F0E9806BF009F0A3706273F18142FAD
:101CB000C8BF142730208DF884000D460DF1850033
:101CC00000E03046002F35DD06462046294601F06B
:101CD00007F801460A4606F1080304200A26B2FB6B
:101CE000F6F606EB860EA2EB4E02303203F8012C1C
:101CF0000A22B6FBF2F202EB820EA6EB4E0630365B
:101D0000401E03F8026DE9D1083F002F03F10806D9
:101D1000D7DD084600F0F6FF02460B46204629466E
:101D200000F048FE0022DFF8403600F0F9FF0446DC
:101D30000D46CAE70DF18501401A0DF1850604E054
:101D40000099491E401E0091761C31783029F7D049
:101D5000B8F1660F02D10099491C04E0B8F1650F93
:101D60000CBF012100210E9D4D19A842B8BF451E90
:101D7000002D1DD4854204DA705D3428C8BF392097
:101D800000DC30202946721E531800E06D1E13F847
:101D90000149491E8442F9D0392802D1705C401CA7
:101DA0007054002904D50098401C16466D1C009004
:101DB000009C01F08BF8406A0778DDF8388028B283
:101DC000002802DC01250FF23C664BF0200066285B
:101DD00008BF641C16D0672846D120B210F1040F4A
:101DE00048DB404546DA9DF84000641C010703D4F7
:101DF00028B24045D8BF804620B2B8EB000848BFA3
:101E00004FF000080FFA84FBBBF1000F00F3B58020
:101E10000898411C0891302205990A54B8F1000F26
:101E200003DC9DF84000010704D50898411C089187
:101E300005990F5418EB0B0FB8BFC8F1000424B27A
:101E400060420B90A0442AB29045B8BF4546059B1E
:101E500008982DB209952A463146184400F068FBCF
:101E6000A8EB05000C90D2E0BBF1610F17D14FF049
:101E7000700B19E028B2404504DA9DF840100A07BB
:101E800058BF8046B8F1010848BF4FF00008BBF1C9
:101E9000670F14BF4FF0450B4FF0650B04E0BBF12B
:101EA000410F08BF4FF0500B0898411C0891B8F142
:101EB000000F059916F8012B0A5403DC9DF8400029
:101EC00001071AD50898411C0891B8F1000F05992F
:101ED0000F5412DD6D1E28B280450598089BB8BFCF
:101EE00045462AB23146184400F022FB08992DB22B
:101EF00069180891A8EB05000B900598089908440B
:101F000021B2002980F800B003D42B224270821C39
:101F100004E02D2242700C46821C644200212BAB4F
:101F200020460AE004460A2094FBF0F000EB80050E
:101F3000A4EB450403F8014B491C00B20028F1DC76
:101F4000012906DC4BF02000652804BF302002F890
:101F5000010B00292BAB08D1302002F8010B06E061
:101F6000491E585C303002F8010B0029F8DC059955
:101F700008980844121A099249E028B221B288420E
:101F80001CDA0598089B2AB23146184400F0D0FAB2
:101F900008992DB269180891ABEB0500B8F1000F54
:101FA0000B9003DC9DF84000020704D505984754C8
:101FB0000999491C0991CDF8308028E00598089BC3
:101FC00022B23146184400F0B3FA08982D1B584449
:101FD000B8F1000F089003DC9DF840100A0703D504
:101FE000411C089105990F5428B280450598089B1B
:101FF000B8BF45462AB206EB0B01184400F098FA28
:1020000008982DB228180890A8EB05000B909DF8B1
:10201000400000F01400102840F0C280079A089990
:102020000B988A18099982180C988A1882180F98A8
:10203000824280F2B580821A0A92B1E09DF8420095
:10204000622808D068280ED06A2814D06C281FD0C7
:10205000712810D01CE0D9F8001051F8040BC9F811
:102060000010C0B21AE0D9F8001051F8040BC9F8FA
:10207000001080B212E0D9F80020D21D22F0070231
:10208000C9F80020D2E900010832C9F8002006E0B2
:10209000D9F8001051F8040BC9F800100021CDE95F
:1020A00002019DF8400001075AD5DDE90223002B0B
:1020B00008BF002A54D04BF02000782850D1079850
:1020C00012A930220A54401C431C079301F800B0A7
:1020D00046E09DF84200622808D068280ED06A28A1
:1020E00014D06C281FD0712810D01CE0D9F8001033
:1020F00051F8040BC9F8001040B21AE0D9F80010EA
:1021000051F8040BC9F8001000B212E0D9F8002011
:10211000D21D22F00702C9F80020D2E900010832DE
:10212000C9F8002006E0D9F8001051F8040BC9F8EE
:102130000010C117CDE90201002902D507982D2111
:102140000AE0BDF84000810702D507982B2103E083
:10215000C00705D50798202112AA1154401C0790EA
:1021600012A807990144059102A8594600F04EF8BB
:1021700016E001200790D9F8000050F8041BC9F8B8
:1021800000008DF848100BE025210122BBF1000F63
:102190008DF84810079203D08DF849B002210791BD
:1021A0000F9A07980A990C9C121A0898521A0B99C0
:1021B000121A0998521A121A9DF84000141B41076E
:1021C0003FF5A9AA2020002C8DF800007FF7A3AAD4
:1021D0002E9E2546FFF793BA4FF0FF302FB0BDE893
:1021E000F08F0000CBCCCC0C686A6C747A4C000089
:1021F0007072696E74665F733A2062616420257341
:1022000020617267756D656E740000002DE9FC43F6
:1022100004466F29256908BF082605D041F0200033
:10222000782814BF0A2610263C27D4E90023642905
:1022300018BF69299046994605D1002B03D5D8F1DE
:10224000000869EB4909B9F1000F08BFB8F1000FA8
:102250000CD1206B50B9082E3AD194F83800010700
:1022600036D530203B2785F83B0031E08DF8001053
:10227000404649463246F31700F02CFE3032D0B2C9
:102280007F1E3A2801970EDAEA5540464946324603
:10229000F31700F01FFE80465FEA010908BFB8F19E
:1022A000000F05D108E09DF800001218513AEBE745
:1022B000E068E9198842DBD3082E09D194F8380088
:1022C000010705D5E85D302802D07F1E3020E85593
:1022D000C7F13C02A261E919E160206B824208DA91
:1022E000821A22624FF6EF70218F01402187BDE8EC
:1022F000F38300280ED594F8380000F0140010285D
:1023000008D1636B6169206A5B1A1B1A9A1A002A4A
:10231000C8BF2262BDE8F3832DE9D04306460F46CD
:1023200014464FF00008DFF8449012E0E00707D5AC
:1023300042464B463046394600F0F2FC06460F4610
:102340004046494642464B4600F0EAFC641080464F
:102350008946002CEAD130463946BDE8D0830000DA
:10236000A08601000000F03F84D797410000244080
:1023700010B503460C461146A0689847A06020B1EE
:10238000E06A401CE062002010BD4FF0FF3010BD3D
:10239000F8B505460E4617461C4600205CB117F8F6
:1023A000011BB068A847B06030B1F06A401CF06211
:1023B0000020641EF3D1F2BD4FF0FF30F2BD0000EB
:1023C0007072696E74665F733A20256E206469735B
:1023D000616C6C6F776564007072696E74663A2028
:1023E00062616420256E20617267756D656E740090
:1023F000000000006E616E004E414E00696E660086
:10240000494E4600300030B5016884684218416882
:1024100002EB5103C90703D54C4401E0491C08D124
:102420009A4218BF12F9011B01D10C3030BD12F8CD
:10243000015B002904F8015BF0D4491EF7D5EFE7F2
:10244000C9B202788A421AB11CBF10F8012FF9E70D
:1024500018BF002070470268531C0360117070475A
:1024600080B500B906A005490B681BB122220021E6
:10247000984701E000F046FE222002BD3C08002003
:10248000636F6E73747261696E742068616E646CE0
:1024900065723A20626164206D65737361676500DF
:1024A00000F10103810704D010F8011B820781B1FC
:1024B000FAD10268A2F10131914311F0803104BFD9
:1024C00050F8042FF6E709BAB1FA81F100EBD10018
:1024D000401CC01A70472E00C9B2830706D0521E96
:1024E00022D310F8013B9942F7D11FE0083A13D3E9
:1024F00002F1040241EA012141EA014150F8043BA2
:10250000121F21BF4B40A3F1013C2CEA030C1CF02D
:10251000803FF3D0C9B2001F083210F8013B521EB1
:1025200028BF91EA030FF8D818BF0120401E70475A
:1025300062B38B0708D0521E11F8013B00F8013B33
:1025400000F024808B07F6D1830740F0208000BF85
:10255000103A07D330B4B1E83810103AA0E8381078
:10256000F9D230BC530724BFB1E80810A0E8081026
:1025700044BF51F8043B40F8043BD20724BF31F874
:10258000022B20F8022B44BF0B7803707047121FF8
:1025900017D35B0009D151F8043B20F8023B1B0C18
:1025A000121F20F8023BF6D20BE051F8043B00F872
:1025B000013B1B0A20F8023B1B0C121F00F8013BD9
:1025C000F3D238BF121D521E24BF11F8013B00F890
:1025D000013BF8D87047000010B5144600F002F82F
:1025E000226010BDC1F30A5343B14A0012F5001F27
:1025F00028D2A3F2FE32A1EB0251704750EA410CFF
:1026000020D001F0004C31EA0C01B1FA81F204BF94
:10261000B0FA80F3D2180B3AB2F120032CBF00FAC3
:1026200003F1914041EA0C013EBFC2F1200C20FAB7
:102630000CF319439040524240F2FD33D21A01EBA1
:10264000035170470022704741EA030C50EA4C0CDA
:1026500052EA0C0C4FF4001C09D307D01CEB410FBD
:102660009CBF1CEB430F8B4208BF824270471CEBA0
:10267000430FFBD8994208BF9042704741EA030CD0
:1026800050EA4C0C52EA0C0C4FF4001C09D307D052
:102690001CEB410F9CBF1CEB430F994208BF9042BB
:1026A00070471CEB410FFBD88B4208BF824270473A
:1026B000124254D440F2FF7C1CEA11530FD0634500
:1026C00031D09B1863453CBF01EB0251704701F0CC
:1026D000004141EA0C510020AFF30080704750EAFE
:1026E000410320D001F0004C91EA0C011CD0B1FA5A
:1026F00081F30B3B9A420DD9D21A994051EA0C0151
:10270000C3F1200C20FA0CFC61449840531C40F2A9
:10271000FF7CD7E7914041EA0C01C2F1200C20FA7E
:102720000CF3194390407047B0FA80F31533202B17
:10273000E0D3202AEED3203A203B9A4209D9D21A7C
:1027400000FA03F141EA0C010020531C40F2FF7C27
:10275000B8E700FA02F141EA0C010020704752424A
:1027600040F2FF7C1CEA11530DD06345DBD0B2EB85
:10277000030C3CBFA1EB025170470CF1010221EAAE
:10278000035141F4801150EA410CCCD001F0004CCF
:10279000352A27DC30B481EA0C01B2F1200309DAD2
:1027A000C2F12003044601FA03F5D0402843D1408A
:1027B0009C400CE0C3F12002450020FA03F418BF4E
:1027C00044F0010421FA03F091400C43002174F11C
:1027D000004550F1000051EB0C01244230BC7FF465
:1027E0007BAF70476146002076E70000C1F30A53D3
:1027F00040F21E42D31A0CDDCA0283F3070342EAF9
:10280000505242F00042DA4002EBE17282EAE1709B
:1028100070476FEAE17203F2E13008B182F00040E4
:102820007047000010F0004160B148BF4042B0FA6C
:1028300080F29040D21CC2F5846241EA025202EB5F
:10284000D021400570470000841A71EB030604D2C2
:102850006E40001BB141121973414FF4001C1CEB78
:10286000410F34BF7CEB430683E00C0DA4EB135601
:10287000362E00F37C80012E45EAC32341DC43EA77
:10288000525312BFD20292025B08240545EAC121CD
:1028900041EA5051D2EBC020994125D407D1B0FA7A
:1028A00080F610FA06F162D00020203608E0B1FA76
:1028B00081F6B140C6F1200220FA02F21143B04085
:1028C0004FEAF474B4EB465434F001064FEA740452
:1028D0000AD8D6F50016760D04F00044F04061FAEF
:1028E00006F25040F1404840C00A40EA415021F011
:1028F000004128BF5FEA500550F1000044EBD121B0
:1029000035E0DB0A45EAC121C90AB6F120050EDD32
:1029100042EA0242120CC5F1200603FA06F6EB4029
:1029200042EA06056D42984161F100010DE062FA4C
:1029300006F5F240554063FA06FC82EA0C02F340C9
:102940005A406D42904161EB030111F4801F05D1A3
:10295000641E620502D06D004041494121F480119E
:10296000430875F1004350F1000041EB045170BC85
:1029700070471CEB410F15D223F0004352EA430687
:102980000BD04FEA4C0CBCEB410F04D80C0D661E6B
:10299000342EB7DDEBE7801A994150EA410608BFB3
:1029A0000021E4E708BF1CEB430F28BF6FF00001D4
:1029B000DDE7000070B491EA030F4FF000457FF5AA
:1029C00043AF6B40841A71EB030603D2001BB14185
:1029D000121973414FF4001C1CEB410F34BF7CEB08
:1029E000430442E00C0DA4EB1356352E4FDC45EAB0
:1029F000C323DB0A45EAC121C912B6F120050DDD6A
:102A000063FA05F6EB4086EA0305124218BF45F06B
:102A10000105C01851F100010CD213E062FA06F56D
:102A2000F2405540F3415A40B340F3405A408018B9
:102A3000594107D349085FEA30005FEA350528BFEE
:102A400045F0010501F58011420875F1004250F191
:102A5000000041EB04514E0016F5001F70BC38BF5A
:102A600070470020090D090570471CEB410F10D27B
:102A700052EA43060BD0BCEB410F05D80C0DAB431B
:102A8000661E342EB6DD02E0AB438018594170BC9F
:102A9000704770BC70470000F0B540F2FF7581EAE6
:102AA000030C0CF0004C15EA11541DBF15EA135726
:102AB000AC42AF42E5E0BC41C1F31301C3F31303E1
:102AC000801A994143F4801304D2641E00184941CE
:102AD00080185941C90241EA5051B1FBF3F603FB9A
:102AE0001611A2FB0675D7EBC020A94102D2761EB3
:102AF00080185941C90241EA5051B1FBF3FE03FB72
:102B00001E11A2FB0E75D7EBC020A94103D2AEF176
:102B1000010E80185941890241EA9051760546EA32
:102B20008E2EB1FBF3F603FB1611A2FB0675D7EB55
:102B30008020A94102D2761E80185941C90241EA7B
:102B400050514EEA060EB1FBF3F603FB1611A2FB41
:102B50000675D7EBC020A94102D2761E80185941D4
:102B6000C90241EA5051B1FBF3F703FB1711A2FB75
:102B70000735D3EBC020A94167F100070CBF004225
:102B800047F0010766F3D5274FEA1E31B80814F560
:102B9000806412DDBD0775F1004250EB0E5051EB21
:102BA000045111F5801F5CBF41EA0C01F0BD4CF0EF
:102BB0007F6141F0E0410020F0BDBD076D0840EAB3
:102BC0000E5041F48011D4F10104B4F120060ADA68
:102BD000C4F120060200E04001FA06F3E140184388
:102BE000B24015430EE0342C13DCC6F1200445EA54
:102BF00040056D0820FA06F2154321FA06F0A140BF
:102C00000D43002175F1004250F1000051EB0C0121
:102C1000F0BD00205FEA0C01F0BDCFB992185B4116
:102C2000B3FA83F704BFB2FA82F6BF190B3FB7F1CC
:102C300020062FBF02FA06F3BB40C7F1200622FA96
:102C400006F638BF3343BA401CB1E419641E33E7BB
:102C50007F4231F00041B1FA81F404BFB0FA80F64E
:102C6000A4190B3CB4F120062FBF00FA06F1A140D5
:102C7000C4F1200620FA06F638BF3143A0403C1BC1
:102C80001AE7AC421ABF05EA1357AF4212E050EA06
:102C900041061CBF52EA4306BFE750EA41073046EF
:102CA00061461CBF41EA0551F0BD52EA430C08BF22
:102CB000C143F0BD00204FF4001616EB410F98BF42
:102CC00016EB430F08BF16EB410F24BFC14305E0CD
:102CD00016EB430F0CBF61464CEA0551F0BD0000F6
:102CE000400D40F21E4C40EAC120BCEB115C40F0AC
:102CF000004003D48CF30701C84070476FEAE170CD
:102D00007047000050B1B0FA80F18840C91CC1F58D
:102D10008461090501EBD0214005704701467047E9
:102D200030B540F2FF7C1CEA11541DBF1CEA13555C
:102D3000644565453FE0641981EA030C6FF35F5316
:102D40000CF0004C43F48013C90241F0004141EA09
:102D5000505EC5021100A5FB020200284FF00000E2
:102D6000EEFB01204FF00001E3FB052118BF42F00C
:102D70000102401800214941E3FB0E01A4F58064E3
:102D80000D0302D292184041494154F1010470DD13
:102D9000450872F1004250F1000051EB0451A1F5D9
:102DA000801102D441EA0C0130BD40F2FF7E4CEAB2
:102DB0000E51002030BD0CEA1355644518BF65451F
:102DC00081EA030C0CF0004C41D050EA410E1CBFCC
:102DD00052EA430E02E06146002030BD24422C44FA
:102DE0001BD15FEA050EF6D0090302BF01460020A1
:102DF000AEF1140EB1FA81F5AEEB050401FA05FE51
:102E00000C35C5F1200100FA05F5C8404EEA000E68
:102E10006FF35F5343F480139CE733F00043B3FA3E
:102E200083F504BFB2FA82FE75440B3D641BB5F115
:102E3000200E2FBF02FA0EF3AB40C5F1200E22FA8E
:102E40000EFE38BF43EA0E03AA40641C7CE750EA3A
:102E5000410E14BF52EA430E6FF000014FF400150B
:102E600015EB430F8EBF194615EB410F9DE7B4D804
:102E700030BDD4F10104B4F120050FDAC4F120050E
:102E8000520828BF42F0010210FA05FE01FA05F5CA
:102E90007244E2BFE0402843E1400FE0352C9ADC69
:102EA000C5F1200452EA400220FA05F218BF42F0B0
:102EB000010231FA05F0A1400A43002172F10042FB
:102EC00050F1000051EB0C0130BD0000004870478C
:102ED000CC000020BBBBE1B1B2F5803F80F07E802A
:102EE000022A1ED98C46B1FBF2F102FB11C31B046E
:102EF00043EA1043B3FBF2FC02FB1C3380B240EA0E
:102F00000343B3FBF2F002FB103240EA0C40002313
:102F10007047022A05D98446B0FBF2F002FB10C2CA
:102F200070474AB105D100F0010249085FEA30005C
:102F3000704700220023704700F0E8B80B00020041
:102F4000002100207047904271EB030CF6D3B3F5DB
:102F5000803F2FD2F0B5B3FA83F7B1FA81F4A7F12D
:102F60000F0E3D1B5340CEF1200602FA0EF2F34144
:102F70005340B5F10F0746D80F3C2C444140C4F1F3
:102F80002006A040F1414140B1FBF3F603FB1611CE
:102F9000A2FB0645001BA94102D2761E80185941AA
:102FA00080EA010221FA0EF362FA0EF200215A4081
:102FB0003046F0BD30B4B1FBF3FC03FB1C11A2FBA7
:102FC0000C45001BA94103D2ACF1010C80185941FA
:102FD00030BC02460B46604600217047B2F1807F4C
:102FE00065D3F0B5B2FA82F7B1FA81F4C7F10F06F2
:102FF0003D1B22FA06F307F1110EF24120355A402B
:10300000B5F10F07B8D94140C4F12006A040F14105
:103010004140B1FBF3FC03FB1C11A2FB0C45001B60
:10302000A94103D2BCF1010C801859410F2F12D3D2
:103030000F3FC90341EA5041B1FBF3F603FB161100
:10304000A2FB0645D4EBC030A94102D2761E8018FF
:10305000594146EACC3C07B34140C7F12006B8408D
:10306000F1414140B1FBF3F603FB1611A2FB06450B
:10307000001BA94102D2761E8018594180EA010244
:1030800021FA0EF3C7F1200462FA0EF20CFA07F0EF
:103090005A402CFA04F13043F0BD80EA010221FAD3
:1030A0000EF3002162FA0EF260465A40F0BD8C46E3
:1030B000B1FBF2F102FB11C31B0243EA1063B3FB45
:1030C000F2FC02FB1C331B024CEA002043EA1063B3
:1030D000B3FBF2FC02FB1C331B024CEA002043EA68
:1030E0001063B3FBF2FC02FB1C331B024CEA002012
:1030F00043EA1063B3FBF2FC02FB1C324CEA0020F3
:1031000000237047012000F003B800007047000062
:1031100080B5AFF30080024A11001820ABBEFBE778
:103120002600020010B5040001D1012010BD94F862
:103130003D00002805D1002084F83C00204600F026
:1031400066FF022084F83D00211D206800F07EFC0F
:10315000012084F8480084F83E0084F83F0084F899
:10316000400084F8410084F8420084F8430084F869
:10317000440084F8450084F8460084F8470084F849
:103180003D00002010BD90F83D10012901D0012024
:103190007047022180F83D100168C96841F00101C3
:1031A0000268D1600168DFF84C2091420AD0B1F189
:1031B000804F07D0DFF84020914203D0DFF83C2059
:1031C00091420FD18A68DFF838100A40062A0ED0E3
:1031D000B2F5803F0BD00168096841F00101006839
:1031E000016004E0096841F001010068016000200D
:1031F00070470000002C01400004004000400140E6
:103200000700010010B5040001D1012010BD94F8A1
:103210003D00002805D1002084F83C00204600F045
:10322000F9FF022084F83D00211D206800F00EFC0B
:10323000012084F8480084F83E0084F83F0084F8B8
:10324000400084F8410084F8420084F8430084F888
:10325000440084F8450084F8460084F8470084F868
:103260003D00002010BD10B5040001D1012010BDAB
:1032700094F83D00002805D1002084F83C00204649
:1032800000F0C9FF022084F83D00211D206800F0F5
:10329000DDFB012084F8480084F83E0084F83F00FC
:1032A00084F8400084F8410084F8420084F8430028
:1032B00084F8440084F8450084F8460084F8470008
:1032C00084F83D00002010BD10B50446002902D14D
:1032D00094F83E0015E0042902D194F83F0010E074
:1032E000082902D194F840000BE00C2902D194F88F
:1032F000410006E0102902D194F8420001E094F860
:103300004300002902D194F844200BE0042902D1A3
:1033100094F8452006E0082902D194F8462001E0FF
:1033200094F84720012801D1012A01D0012010BDC5
:10333000002903D1022084F83E001AE0042903D1B9
:10334000022084F83F0014E0082903D1022084F809
:1033500040000EE00C2903D1022084F8410008E06F
:10336000102903D1022084F8420002E0022084F8F0
:103370004300002902D184F844000BE0042902D163
:1033800084F8450006E0082902D184F8460001E0EF
:1033900084F84700080006D004280BD0082810D075
:1033A0000C2815D01AE02068C06840F0020022689E
:1033B000D06013E02068C06840F004002268D0604C
:1033C0000CE02068C06840F008002268D06005E08A
:1033D0002068C06840F010002268D0600122206898
:1033E00000F05EFD2068DFF8001188420AD0B0F1DD
:1033F000804F07D0DFF8F410884203D0DFF8F010D8
:1034000088420ED181680B48014006290ED0B1F5E3
:10341000803F0BD02068006840F001002168086000
:1034200004E0006840F0010021680860002010BD41
:10343000000000000700010038B504460D46002CCE
:1034400001D1012032BD94F83D00002805D10020B3
:1034500084F83C00204600F037FE022084F83D004E
:1034600020688168DFF83C01014020688160211DEF
:10347000206800F0EBFA206881688269036ADFF84F
:1034800028010240A8680243A86942EA0022DFF846
:10349000B0040240E8680243E86942EA0022286971
:1034A00042EA0012286A42EA003223F0AA0368685E
:1034B0000343686943EA0013286801432068816078
:1034C0002068826120680362012084F8480084F843
:1034D0003E0084F83F0084F8440084F8450084F8F6
:1034E0003D00002032BD0000002C014000040040DF
:1034F0000040014038B5044694F83E0094F83F205F
:1035000094F8443094F84550002909D101281BD182
:10351000012B19D1022084F83E0084F844001EE0FB
:10352000042909D1012A0FD1012D0DD1022084F8DF
:103530003F0084F8450012E0012805D1012A03D19B
:10354000012B01D1012D01D0012032BD022084F8D0
:103550003E0084F83F0084F8440084F845000029C8
:1035600002D0042906D00BE001220021206800F0DF
:1035700097FC0FE001220421206800F091FC09E093
:1035800001220021206800F08BFC01220421206828
:1035900000F086FC2068006840F0010021680860A7
:1035A000002032BDF8BFFEFFFCFCFFFF10B5044653
:1035B00020680069800719D52068C068800715D584
:1035C0006FF002002168086101202077206880697F
:1035D00010F0030F204602D001F05CFA04E001F085
:1035E0000AFB204601F008FB0020207720680069D4
:1035F000400719D52068C068400715D56FF0040052
:1036000021680861022020772068806910F4407FDB
:10361000204602D001F03EFA04E001F0ECFA204628
:1036200001F0EAFA0020207720680069000719D528
:103630002068C068000715D56FF008002168086190
:10364000042020772068C06910F0030F204602D0C4
:1036500001F020FA04E001F0CEFA204601F0CCFAA5
:103660000020207720680069C00619D52068C0684E
:10367000C00615D56FF0100021680861082020777A
:103680002068C06910F4407F204602D001F002FAA1
:1036900004E001F0B0FA204601F0AEFA00202077F5
:1036A00020680069C0070AD52068C068C00706D531
:1036B0006FF0010021680861204601F09EFA206841
:1036C000006900060AD52068C068000606D56FF0BC
:1036D000800021680861204601F090FA20680069A6
:1036E000C0050AD52068C068000606D56FF4807052
:1036F00021680861204601F082FA206800694006CE
:103700000AD52068C068400606D56FF040002168E1
:103710000861204601F074FA2068006980060CD523
:103720002068C068800608D56FF020002168086115
:103730002046BDE8104001F064BA10BD38B504461B
:103740000D4694F83C00012801D1022032BD012031
:1037500084F83C00002A12D1EB686A682968206866
:1037600000F0E3FA2068806920F00C00216888618D
:1037700020688169A86801432068816139E0042AD2
:1037800013D1EB686A682968206800F01FFB206885
:10379000806920F440602168886120688069A96898
:1037A00040EA01202168886123E0082AEB686A6802
:1037B000296820680ED100F033FB2068C06920F032
:1037C0000C002168C8612068C169A86801432068AD
:1037D000C1610EE000F03AFB2068C06920F440604F
:1037E0002168C8612068C069A96840EA0120216891
:1037F000C861002084F83C0032BD38B504460D464F
:1038000094F83C00012801D1022032BD012084F847
:103810003C00002A0AD0042A1ED0082A33D00C2AE1
:1038200047D0102A5CD0142A70D085E0206800F0C0
:1038300056F92068806940F0080021688861206896
:10384000806920F004002168886120688169286906
:103850000143206881616FE0206800F080F92068F2
:10386000806940F40060216888612068806920F4E4
:1038700080602168886120688069296940EA0120A8
:103880002168886158E0206800F09DF92068C069CF
:1038900040F008002168C8612068C06920F0040079
:1038A0002168C8612068C169286901432068C16135
:1038B00042E0206800F0BBF92068C06940F4006075
:1038C0002168C8612068C06920F480602168C861EF
:1038D0002068C069296940EA01202168C8612BE09D
:1038E000206800F0CEF92068406D40F008002168A3
:1038F00048652068406D20F0040021684865206814
:10390000416D286901432068416515E0206800F099
:10391000E2F92068406D40F4006021684865206845
:10392000406D20F48060216848652068406D2969F9
:1039300040EA012021684865002084F83C0032BD3F
:103940000303FFFF10B5044694F83C00012801D1A1
:10395000022010BD012084F83C00022084F83D00C4
:1039600020688268DFF818040240206882600868D6
:10397000002849D0102847D0202845D0302843D0EF
:10398000402837D0502821D0602829D0702803D073
:10399000B0F5005F0DD03BE0CB684A6889682068CD
:1039A00000F073FA2068806840F077002168886032
:1039B0002EE0CB684A688968206800F066FA2068C3
:1039C000806840F480402168886021E0CA684968C6
:1039D000206800F0E9F95021206800F04EFA17E065
:1039E000CA684968206800F008FA6021206800F081
:1039F00044FA0DE0CA684968206800F0D5F9402112
:103A0000206800F03AFA03E00146206800F035FA39
:103A1000012084F83D00002084F83C0010BD0246DF
:103A20000020002906D0042907D0082908D00C2935
:103A300009D070471068406B70471068806B704702
:103A40001068C06B70471068006C70470368DFF83F
:103A50003423904206D0B0F1804F03D0DFF8282302
:103A6000904203D123F070034A681343DFF8142314
:103A7000904212D0B0F1804F0FD0DFF80C2390426B
:103A80000BD0DFF80823904207D0DFF804239042E0
:103A900003D0DFF80023904203D123F44073CA68B7
:103AA000134323F080034A69134303608A68C262A8
:103AB0000A688262DFF8CC2290420BD0DFF8CC2279
:103AC000904207D0DFF8C822904203D0DFF8C4222A
:103AD000904201D10969016301214161704730B40D
:103AE000026A520852000262046A43688569DFF87C
:103AF000A82215400A68154324F002048A6814437A
:103B0000DFF8802290420BD0DFF88022904207D06D
:103B1000DFF87C22904203D0DFF87822904205D172
:103B200024F00804CA68144324F00404954A90421F
:103B300008D0964A904205D0954A904202D0954AC4
:103B4000904205D123F440734A6913438A691343B1
:103B50004360856149684163046230BC704770B45A
:103B6000026A22F010020262046A436885698B4A85
:103B700015400A6845EA022524F020048A6844EAD0
:103B80000214804A904206D124F08004CA6844EAB4
:103B9000021424F0400408D07C4A904205D07C4AAC
:103BA000904202D07B4A904206D123F440634E6992
:103BB0008A69164343EA86034360856149688163E5
:103BC000046270BC704770B4026A22F480720262B0
:103BD000046A4368C569704A15400A68154324F4AD
:103BE00000748A6844EA0224664A904206D124F4AA
:103BF0000064CA6844EA022424F4806408D0634A5A
:103C0000904205D0624A904202D0624A904206D168
:103C100023F440534E698A69164343EA061343600E
:103C2000C5614968C163046270BC7047000030B46C
:103C3000026A22F480520262036A4468C569574AE4
:103C400015400A6845EA022523F400538A6843EACE
:103C500002334C4A904208D04C4A904205D04C4A1C
:103C6000904202D04B4A904204D124F480444A69E5
:103C700044EA82144460C56149680164036230BC4F
:103C8000704730B4026A22F480320262036A4468E8
:103C9000456D434A15400A68154323F400338A688A
:103CA00043EA0243374A904208D0384A904205D04E
:103CB000374A904202D0374A904204D124F48034EB
:103CC0004A6944EA022444604565496881650362A3
:103CD00030BC7047000030B4026A22F480120262E5
:103CE000036A4468456D2F4A15400A6845EA022573
:103CF00023F400138A6843EA0253224A904208D010
:103D0000224A904205D0224A904202D0214A904253
:103D100004D124F480244A6944EA8224446045653D
:103D20004968C165036230BC704770B4046A6408B6
:103D3000640004628469056A124EB04208D0B0F192
:103D4000804F05D0104EB04202D0104EB04201D18B
:103D5000012600E00026002E03D0A40852EA8402C7
:103D600002E0224642F0010263F30712826125F06D
:103D70000A0501F00A012943016270BC7047000086
:103D80008800FEFF002C014000040040004001407C
:103D900000440140004801408CFFFEFFFF8CFFFE05
:103DA0008FFFFEFFFF8FFFFE10B4036A046A6408F2
:103DB00064000462846924F0F00444EA021484611B
:103DC00023F00A031943016210BC704730B4046A3F
:103DD00024F0100404628469056A24F4407444EAFF
:103DE000022463F30F34846125F0A005090101F07A
:103DF000A0012943016230BC704710B4036A23F06C
:103E0000100303628369046A23F4704343EA0233B4
:103E1000836124F0A00444EA0114046210BC7047DA
:103E200030B4046A24F480740462C469056AA40886
:103E300052EA840263F30712C26125F42065090285
:103E400001F420612943016230BC704730B4046A38
:103E500024F480540462C469056A24F4407444EA7A
:103E6000022463F30F34C46125F42045090301F4EF
:103E700020412943016230BC7047826822F0700201
:103E8000114341F007018160704710B4846824F445
:103E90007F442143114341EA0321816010BC7047F4
:103EA00030B4046A012501F01F039D40AC43046255
:103EB000036A01F01F0102FA01F11943016230BCEB
:103EC0007047000081B0DFF82003006840F0010077
:103ED000DFF8141308600846006800F00100009045
:103EE0000098DFF80803006840F08050DFF8FC120B
:103EF00008600846006800F080500090009801B00B
:103F0000704710B586B004461422002101A800F0C5
:103F100079FE2068B0F1A04F43D1DFF8D4020068E9
:103F200040F08050DFF8C81208600846006800F0D2
:103F30008050009000980846006840F40030086007
:103F40000846006800F400300090009801200190BD
:103F5000032002900020039001A94FF0904000F050
:103F60005BFEDFF89002DFF89012086000204860E6
:103F700088608020C8604FF4807008614FF48060D2
:103F80004861002088614FF48050C861084600F005
:103F900015FF002801D000F02CFEDFF85C02A063C2
:103FA000446206B010BD10B586B00446142200214C
:103FB00001A800F027FE20689049884225D18C484E
:103FC000006840F480208A4908600846006800F4D0
:103FD000802000900098C0200190122002900120C3
:103FE0000390032004900420059001A9844800F068
:103FF00013FE7E48006840F400107C4908600846C3
:10400000006800F400100090009806B010BD10B5D4
:1040100086B004461422002101A800F0F3FD2068B8
:10402000784988420CD17048006840F400606E49BD
:1040300008600846006800F400600090009841E0C5
:10404000B0F1804F2FD16948006840F00100674906
:1040500008600846006800F001000090009864487D
:10406000006840F40030624908600846006800F4C7
:104070000030009000984FF40070019002200290F0
:104080000020039004900A20059001A94FF0904071
:1040900000F0C2FD002211461C2000F0E0FF1C20B1
:1040A00000F0ECFF0EE0584988420BD14F48006801
:1040B00040F010004D4908600846006800F010000C
:1040C0000090009806B010BD10B586B004461422CA
:1040D000002101A800F096FD20684C49884224D1B7
:1040E0004248006840F00200404908600846006805
:1040F00000F00200009000983D48006840F48020E5
:104100003B4908600846006800F480200090009851
:1041100030200190022002900020039004900220A1
:10412000059001A9364800F077FD06B010BD10B526
:1041300086B004461422002101A800F063FD206827
:104140003049884218D12A48006840F48020284924
:1041500008600846006800F4802000900098032062
:104160000190022002900020039004900620059008
:1041700001A9234800F050FD06B010BD10B586B06F
:1041800004461422002101A800F03CFD20682049CB
:10419000884226D11548006840F400301349086071
:1041A0000846006800F4003000900098104800684D
:1041B00040F400300E4908600846006800F4003002
:1041C000009000980C2001900220029000200390A3
:1041D000032004900720059001A94FF0904000F0C3
:1041E0001BFD06B010BD0000181002401C1002405C
:1041F00014100240080002406007002000540040F4
:1042000000040048002C0140001000400004004061
:104210000044004070477047E0B500F041FF00F0F7
:10422000B6F900F0EBFB00F0D2FB00F047FA00F02B
:1042300050FB00F0F7F900F06FFA00F0ADFB00F072
:1042400087FB00F0F1FA0021DFF8C808FFF752F908
:104250000421DFF8C008FFF74DF92020DFF8B81877
:104260008881084600F030FFDFF8B00800F0BAFFA0
:1042700000F0C4FF01F081FB0021052001F0D5F81A
:104280000122DFF89C18DFF89C0801F02AF92321AD
:10429000142001F0CAF80122DFF88C18DFF88C082E
:1042A00001F01FF901F04EF8DFF88408FEF76BFF0C
:1042B0000821DFF87C08FFF707F842F210720021AE
:1042C000DFF8580800F056FF4FF4FA7001F08CFB4D
:1042D000002001F09DFB00221146DFF8400800F0AD
:1042E00049FFE6E00020DFF84C180870DFF84818B6
:1042F0000870DFF84808007880F00100DFF83C180B
:10430000087008460078012808D1DFF834080168F1
:1043100089B2DFF83008007801F059FCDFF828088E
:104320000078002800F0C5800020DFF81C18087015
:10433000DFF818080078012815D10020DFF80C18E4
:1043400008704FF47A70029008200190DFF800089E
:10435000009001232022DE21DFF8F80701F046FF5C
:10436000DFF8F4170870DFF8F4070078012815D19A
:104370000020DFF8E81708704FF47A7002900820E8
:104380000190DFF8DC07009001232022DE21DFF816
:10439000C40701F057FEDFF8C0170870DFF8C40744
:1043A0000078012812D10020DFF8B81708704FF408
:1043B0007A70029008200190DFF8AC07009001238A
:1043C0000022DE21DFF88C0701F010FFDFF89C07E8
:1043D0000078012812D10020DFF8901708704FF400
:1043E0007A70029008200190DFF884070090012382
:1043F0000022DE21DFF85C0701F024FEDFF87407FD
:104400000078012826D10020DFF8681708700820FE
:10441000DFF85C170870802008714FF47A70029002
:10442000012001900846009001230722DE21DFF8D9
:10443000240701F007FE4FF47A70029001200190EA
:10444000DFF83407009001230022DE21DFF80407A3
:1044500001F0F8FDDFF824070078012812D10020D0
:10446000DFF8181708704FF47A700290012001905D
:10447000DFF80C07009001230722DE21DFF8D406C5
:1044800001F0E0FDDFF8FC060078002809D0DFF835
:104490008806007A002804D1DFF87C16052001F098
:1044A00011FBDFF8E006007880F00100DFF8D41699
:1044B0000870DFF8D40600680021DFF8D026C2E9D2
:1044C00000010120DFF884160870DFF8C4060078C8
:1044D000002824D00020DFF8B8160870DFF838066E
:1044E00000F003FE0122DFF8AC16DFF8AC0602F0A4
:1044F000C4F9DFF8A006006800F070FBDFF844168E
:104500000870DFF81406007A002808D0DFF80816D3
:10451000042001F0D7FA0020DFF868160870DFF8F1
:104520007C060078002803D00020DFF870160870A1
:10453000DFF86C06007800283FF4F0AE0020DFF8CA
:104540006016087002F058FDDFF85816087008462B
:10455000007800283FF4C6AEDFF8D80500780128BF
:1045600010D1DFF8D405007800287FF4C2AEDFF860
:10457000A815DFF83006007801F0A4FADFF8B815C6
:104580000870B6E60120DFF8AC150870B1E600B59A
:1045900095B0002228210BA802F04EFD0022142124
:1045A000684602F049FD0022182105A802F044FDEA
:1045B00002200B9001200F901020109002201290EA
:1045C000002013904FF4601014900BA802F052FDDD
:1045D000002801D000F00DFB0F2000900220019078
:1045E000002002904FF4806003904FF4C06004906C
:1045F0000221684602F04DFF002801D000F0F9FAD0
:104600004FF4855005904FF4807009900020089079
:104610000A9005A803F02AF8002801D000F0E9FA72
:1046200015B000BD00B589B000220C2106A802F02B
:1046300003FD00221821684602F0FEFC4FF0A04066
:10464000DFF85415086000204860886008614876EB
:1046500081F82000C862012088620020C860012023
:10466000C861002081F830000420486100200876ED
:104670004863084601F0FAFF002801D000F0B9FABB
:104680000020069006A9DFF8100502F079FB00284B
:1046900001D000F0AEFA01200090019000200390BC
:1046A0000290049005906946DFF8EC0402F096F958
:1046B000002801D000F09DFA09B000BD80B5DFF8F8
:1046C000E804DFF890140860DFF8E0044860002098
:1046D00088600120C8600020086148618861C86165
:1046E0000862084601F096FB002801D000F081FA2C
:1046F0000021DFF8600403F059F8002801D000F031
:1047000078FA0021DFF84C0403F081F8002802D089
:10471000BDE801406DE201BD00B599B00022102155
:1047200015A802F089FC00220C21684602F084FCE6
:1047300000221C2103A802F07FFC00222C210AA8E1
:1047400002F07AFCDFF86804DFF8D013086000207C
:10475000486088604FF6FF70C860002008614861BB
:10476000802088610846FEF7DDFC002801D000F0BB
:1047700040FA4FF48050159015A9DFF8A003FFF719
:10478000E1F8002801D000F034FADFF89003FEF7DA
:1047900039FD002801D000F02CFA00200090019093
:1047A00002906946DFF8740303F004F9002801D091
:1047B00000F01FFA602003900020049005900690FE
:1047C000079008900990042203A9D448FFF715F830
:1047D000002801D000F00DFA082203A9CF48FFF706
:1047E0000CF8002801D000F004FA00200A900B9089
:1047F0000C900D900E904FF400500F9000201090F0
:1048000011904FF0007012900020139014900AA99C
:10481000C24803F008F9002801D000F0EAF9BF48C7
:10482000FFF785FC19B000BD00B58BB00022102148
:1048300007A802F001FC00220C2104A802F0FCFBF6
:1048400000221021684602F0F7FB4FF08040B84983
:1048500008600020486088604FF6FF70C860002044
:104860000861802088610846FEF75CFC002801D0C2
:1048700000F0BFF94FF48050079007A9AC48FFF74C
:1048800061F8002801D000F0B4F9A948FEF7EBFC6C
:10489000002801D000F0ADF900200490069004A992
:1048A000A34803F087F8002801D000F0A2F9002007
:1048B0000090012001900020029003900822694698
:1048C0009B48FEF73BFF002801D000F092F90BB0A7
:1048D00000BD80B58CB00022242103A802F0ACFBFF
:1048E00000220C21684602F0A7FBB2488949086003
:1048F0000020486088604FF6FF70C86000200861A3
:1049000080208861032003900020049001200590FE
:1049100008200690002007900890012009900820A8
:104920000A9000200B9003A97A48FEF785FD002825
:1049300001D000F05EF900200090029069467548B1
:1049400003F038F8002801D000F053F90DB000BD95
:10495000E0B500220C21684602F06EFB96489749AC
:1049600008600020486088604FF6FF70C860002033
:1049700088610846FEF7D6FB002801D000F039F91F
:1049800000200090029069468C4803F013F800283C
:1049900001D000F02EF907BD80B58948894908602B
:1049A0004FF41640486000208860C86008610C2001
:1049B000486100208861C86108624862084603F0C7
:1049C0008DF8002802D0BDE8014012E101BD80B59C
:1049D0007D48006840F001007B4908600846006897
:1049E00000F0010000900098002211460B2000F01A
:1049F00036FB0B20BDE8024000F040BB80B586B01E
:104A000000221421684602F017FB6F48006840F44A
:104A100080006D4908600846006800F48000059039
:104A200005980846006840F40030086008460068B1
:104A300000F40030059005980846006840F4802096
:104A400008600846006800F4802005900598302032
:104A50000090002001900120029069464FF09040A4
:104A600000F0DAF84020009000200190022002902F
:104A700069464FF0904000F0CFF84FF4006000908E
:104A800000200190029069464FF0904000F0C4F879
:104A900007B000BD017F042900D0704780B54B49A5
:104AA0000978002908D00821FEF7B9FF48490860B5
:104AB00000204649087001BD0821FEF7B0FF4549B6
:104AC0000860434800680968884205D24048006889
:104AD000091A4148016010E008463D4909688842CA
:104AE00009D23C4801683A480068091A01F580314A
:104AF0003948016001E000F07CF802F07BFD3649A6
:104B00000968B0FBF1F00E49086001202F490870D8
:104B100001BD0000C8060020040800203006002067
:104B2000000000206496000808000020D4960008C9
:104B30007C06002042080020430800204008002096
:104B400034080020450800204F08002046080020B7
:104B5000E4070020E40500204B080020470800205F
:104B60001800002048080020A40700204908002061
:104B7000C40700200D010020C80700204A080020BB
:104B8000C6070020410800203C0000401808002013
:104B90004C08002014080020940500204D08002037
:104BA0004E08002044080020005400400E09002058
:104BB000002C0140000400400010004014070020B9
:104BC0000044004010050020141002400C01002099
:104BD000280800202C0800203008002080007D21BB
:104BE000B0FBF1F0FF2800D3FE20C0F15000C0B2AE
:104BF000704772B6FEE7704770477047704770475E
:104C00007047704710B5044610460A4601462046D4
:104C100003F04CF9204610BDF8B40246002334E0FE
:104C2000052403E05C4CA242FAD103249E0006F066
:104C30000C06B4402C43594D1E46B60845F8264094
:104C4000574C246884434D68ED0300D50443544D0C
:104C50002C60544C246884434D68AD0300D5044354
:104C6000504D2C60504C246884434D68ED0200D5B3
:104C700004434D4D2C604D4C246884434D68AD0277
:104C800000D50443494804605B1C0868D84079D0CB
:104C9000086801249C402040F6D04C68012C05D0C7
:104CA000022C03D0112C01D0122C12D194680325B0
:104CB0005E00B540AC43CD68B5402C439460546869
:104CC00001259D40AC434D68C5F300159D402C4324
:104CD0005460D46803255E00B540AC438D68B54090
:104CE0002C43D4604C68022C01D0122C15D11C46E8
:104CF000E40802EB8404246A1D46ED0802EB8505F6
:104D00000F269F0007F01C07BE40B4430E699F00AA
:104D100007F01C07BE4034432C62146803255E0074
:104D2000B540AC430D7905F00305B5402C43146044
:104D30004C68E400A8D51E4C246844F001041C4DC6
:104D40002C602C46246804F001040094009C134C51
:104D50001D46AD0854F825500F249E0006F00C06A1
:104D6000B440A543B2F1904F01D100245EE7114C4D
:104D7000A24201D1012459E70F4CA2427FF452AF65
:104D8000022453E7F1BC7047006901400846401E09
:104D90008041C043C00F7047000C0048080001402C
:104DA0000004014004040140080401400C040140D7
:104DB00018100240000400480008004810B5040024
:104DC00001D1012010BD022084F821002068016873
:104DD0006FF30D1160680143A0680143E06801436F
:104DE0002069014360690143A0690143E06901430F
:104DF00020680160204600F0BFF80020A063012079
:104E000084F82100002084F8200010BD70B504460D
:104E1000002594F82000012801D1022070BD012056
:104E200084F8200094F82100012828D1022084F879
:104E300021002846A06320680068400840002668DA
:104E40003060204600F083F8E06A0028206800689F
:104E500004D040F00E002168086009E040F00A002C
:104E6000216808602068006820F00400216808605C
:104E70002068006840F001002168086003E02846CF
:104E800084F820000225284670BD18B4C16B0A685A
:104E900001680B680424016C8C40224215D059072C
:104EA00013D501680968890605D40168096821F0ED
:104EB0000401026811600422016C8A40C16B4A60DF
:104EC000C16A002940D014BC08470224016C8C4000
:104ED00022421BD0990719D501680968890608D4B0
:104EE0000168096821F00A0102681160012180F857
:104EF00021100222016C8A40C16B4A60002180F8B7
:104F00002010816A00291FD014BC08470824016CB6
:104F10008C40224218D0190716D50168096821F083
:104F20000E01026811600122016C8A40C16B4A6067
:104F30000121816380F82110002180F82010016B8D
:104F4000002901D014BC084711BC7047000030B4E0
:104F50000125046CA540C46B656004686360436808
:104F6000102B036803D19A600068C16002E0996069
:104F70000068C26030BC7047026805498A18142175
:104F8000B2FBF1F1890001640249C163704700007E
:104F9000F8FFFDBF0000024039490A684FF6FF01E3
:104FA0000A40000200F4E0601043364908433449E7
:104FB0000860704732480068C0F302207047010063
:104FC00007D4012200F01F018A402F49400941F80F
:104FD00020207047020003D409012C4A1154704765
:104FE00009012B4A00F00F00104400F8041C704720
:104FF00010B400F00700C0F10703052B00D3042311
:10500000041D072C01D2002000E0C01E012404FA78
:1050100003F35B1E19408140234603FA00F0401E53
:105020001040084310BC704710B50446601EB0F134
:10503000807F0CD2174908600F214FF0FF30FFF737
:10504000C9FF002014490860072014490860641E45
:10505000B4F1807F8041C043C00F10BD9CE770B5A4
:1050600004460D461646FFF7A5FF32462946FFF7D0
:10507000BFFF01462046BDE87040ABE79FE7D3E79E
:105080000CED00E00000FA0500E100E000E400E0C3
:1050900018ED00E014E000E018E000E010E000E0AF
:1050A00080B50848006840F01000064908600320F9
:1050B000FFF7D4FF002002F02DFFFEF703FF0020D2
:1050C00002BD000000200240002101604160017229
:1050D000B0F90A10002901D100214181B0F90C106A
:1050E000002901D16421818170472149096801604B
:1050F0004168026891420ADA0A460168521A012A96
:1051000002DB0121017213E00221017210E011465D
:10511000426891420ADA0A464168521A012A02DBC1
:105120000221017204E00121017201E000210172FB
:10513000017A01290BD1C189491CC181B0F90C1038
:10514000B0F90E20914200DD1146C1810CE0022928
:105150000AD1C189491EC181B0F90A10B0F90E20E7
:10516000914200DA1146C181016841607047000038
:105170002404004078B587B004460D4616461C222C
:1051800000216846FFF73EFD60200090002002905D
:1051900003900490059006900421204602F0BFFB86
:1051A0000821204602F0BBFB0196042269462046F6
:1051B000FEF723FB002801D0FFF71BFD0195082215
:1051C00069462046FEF719FB002801D0FFF711FDC4
:1051D0000421204602F04AFB0821204602F046FB4B
:1051E00008B070BD10B50446042102F03FFB082151
:1051F0002046BDE8104002F039BB000080B540F603
:10520000C410002800E0401EFDD1AE22002178200D
:1052100000F0D5FB20220021782000F0D0FB1022E6
:105220000021782000F0CBFBB0220021782000F094
:10523000C6FBC8220021782000F0C1FB00221146E5
:10524000782000F0BCFB10220021782000F0B7FB92
:1052500040220021782000F0B2FB8122002178203A
:1052600000F0ADFBFF220021782000F0A8FBA12276
:105270000021782000F0A3FBA6220021782000F076
:105280009EFBA8220021782000F099FB3F220021FC
:10529000782000F094FBA4220021782000F08FFBFE
:1052A000D3220021782000F08AFB002211467820CA
:1052B00000F085FBD5220021782000F080FBF02251
:1052C0000021782000F07BFBD9220021782000F01B
:1052D00076FB22220021782000F071FBDA220021E7
:1052E000782000F06CFB12220021782000F067FB90
:1052F000DB220021782000F062FB202200217820B0
:1053000000F05DFB8D220021782000F058FB142274
:105310000021782000F053FBAF220021782000F01C
:105320004EFB2E220021782000F049FB002000F0E7
:105330002EF800F007F80020DFF8A0160860012022
:10534000487102BD10B500241CE0A4F15002D2B295
:105350000021782000F033FB00221146782000F075
:105360002EFB10220021782000F029FB8023DFF89B
:1053700070062146C9B210EBC1124021782000F01E
:1053800003FB641C2046C0B20828DEDB10BD0028E9
:1053900001D1002200E0FF224FF48061DFF84006D7
:1053A00001F04ABE13460246802A00DB704730B443
:1053B0000A46402A37DADFF824261279002A02D07A
:1053C0005B1E9B41DB0F012B0A46DFF814360C46AF
:1053D00014D1E41010EBC4141D46C91010EBC11019
:1053E000285C01211546AD1012EB557505F0F80546
:1053F000521B01FA02F202431A5514E0E41010EBBA
:10540000C4141D46C91010EBC110285C01211546BB
:10541000AD1012EB557505F0F805521B01FA02F2BA
:1054200020EA02021A5530BC7047DFF8B025108020
:105430001046418070472DE9F84304460D46164654
:10544000DFF89805008829780818802806DADFF840
:105450008C05408869780818402801DB00203EE070
:10546000002700E07F1C687887422FD268682146B9
:1054700020396A7802FB017130F811804FF0000981
:105480000FE030460246521E9241D20FDFF84C0523
:105490004188791889B20088484480B2FFF782FFBA
:1054A00011E028788145DDD208FA09F00004E8D53A
:1054B0003246DFF828054188791889B200884844C7
:1054C00080B2FFF76FFF09F10109EAE7DFF80C0589
:1054D000008829784018DFF8041508802046BDE8C8
:1054E000F28370B504460D46164600E0641C207831
:1054F000002806D032462946FFF79DFF21788842D2
:10550000F4D0207870BD2DE9F84F0746802800DBE5
:105510007F271046802800DB7F220E463046402839
:1055200000DB3F261846402800DB3F233846114663
:10553000884201D2D11B00E0B91A30461C46A04275
:1055400002D2A3EB060801E0A6EB03083846144696
:10555000A04202D24FF0010901E04FF0FF3930467E
:105560001C46A04202D24FF0010A01E04FF0FF3A80
:1055700040460C4600B224B2A04203DA8B460FFA32
:105580008BFB04E0C3460FFA8BFBCBF1000B0BEB5C
:10559000DB7B4FEA6B0B0A980C4624B2002C1AD125
:1055A00019463446A14201D233460E469046B845CC
:1055B00000D9B84636B21C46054606E02A463146B2
:1055C00089B24046FFF7EEFE761C2046314609B20E
:1055D0008842F3DA4BE0444624B2002C1AD19846B4
:1055E000B04500D9B04611463B46994201D23A46F1
:1055F0000F463FB21546044606E02246414638466D
:1056000080B2FFF7CFFE7F1C2846394609B2884298
:10561000F3DA2CE03546ADF80220ADF80030044650
:105620000E4611E05846314609B24942024612B2CE
:10563000914202DAABEB080B4F44414600B209B28B
:10564000884201DAB34455442246294689B2384695
:1056500080B2FFF7A7FE3846BDF8021080B288423C
:10566000E0D12846BDF8001080B28842DAD1BDE80A
:10567000F18F2DE9FC4105460F4690461E468028D5
:105680003ADA3846402837DA40464019802801DBAC
:10569000C5F180083046C019402801DBC7F140063B
:1056A000089C204600903B4608EB050292B2284633
:1056B000FFF729FF20460090F3199BB208EB050283
:1056C00092B2F11989B22846FFF71DFF20460090DB
:1056D000F3199BB22A4639462846FFF714FF009477
:1056E000F61933469BB208EB050292B2394645449F
:1056F000284680B2FFF707FFBDE8F3812DE9F843A4
:105700000446802C2DDA0C46402C2ADA1446241844
:10571000802C01DBC0F180021C466418402C01DBA8
:10572000C1F140034FF00009DDF8208004460D462A
:1057300016461F4610E04046009009EB05039BB259
:10574000321992B209EB050189B22046FFF7DBFE60
:1057500009F101095FFA89F93846494680B2884261
:10576000E9D2BDE8F1832DE9F84F06460F46914690
:105770009846C9F10100ADF800004FF0010A4FEA68
:10578000490BCBF1000B00244D46424609EB0701C3
:1057900089B2304680B2FFF705FE4246A7EB090109
:1057A00089B2304680B2FFF7FDFD4246394689B2E4
:1057B00009EB060080B2FFF7F5FD4246394689B293
:1057C000A6EB0909484680B2FFF7ECFDBDF9009051
:1057D00045E0484600B2002804D46D1E2DB20BF1FE
:1057E000020BD944641C24B20AF1020AD144424695
:1057F000E91989B2A01980B2FFF7D4FD4246E91930
:1058000089B2301B80B2FFF7CDFD4246791B89B2C9
:10581000A01980B2FFF7C6FD4246791B89B2301B42
:1058200080B2FFF7BFFD4246E11989B2A81980B2E4
:10583000FFF7B8FD4246E11989B2701B80B2FFF74D
:10584000B1FD4246391B89B2A81980B2FFF7AAFD03
:105850004246391B89B2701B80B2FFF7A3FD204678
:1058600029468842B5DBBDE8F18F2DE9FE4F06469B
:105870000F4691469846C9F10100ADF804004FF07B
:10588000010A4FEA490BCBF1000B00244D4642467A
:1058900009EB070189B2304680B2FFF783FD42462B
:1058A000A7EB090189B2304680B2FFF77BFD424683
:1058B000394689B209EB060080B2FFF773FD424614
:1058C000394689B2A6EB090080B2FFF76BFD40466E
:1058D00000903B469BB209EB060292B2394689B270
:1058E000A6EB0909484680B2FFF70DFEBDF904900A
:1058F0003DE0484600B2002804D46D1E2DB20BF1E5
:10590000020BD944641C24B20AF1020AD144404675
:105910000090EB199BB2A21992B2E91989B2301B1F
:1059200080B2FFF7F0FD404600907B1B9BB2321B1C
:1059300092B2791B89B2A01980B2FFF7E4FD40460C
:105940000090E3199BB2721B92B2E11989B2A819B7
:1059500080B2FFF7D8FD404600903B1B9BB2721B04
:1059600092B2391B89B2A81980B2FFF7CCFD20464C
:1059700029468842BDDBBDE8F78F80B50020FFF7E0
:1059800006FDBDE80140DDE430B5C1B08DF804107E
:10599000002105E0545C01AD0D446C70491CC9B296
:1059A0000C461D46AC42F5D3642100915B1C9BB2B2
:1059B00001AA01460B4800F08FFA41B030BDE0B5B6
:1059C0008DF804108DF8052064210091022301AAAE
:1059D0000146044800F080FA07BD000020080020BE
:1059E00010010020E405002038B5044602F0B8FAA2
:1059F000054614F1010F02D004480078241802F083
:105A0000AFFA401BA042FAD331BD00BF0E01002007
:105A100010B50446DFF8C0030078DFF8C013087043
:105A2000204603284AD8DFE800F002171F35FFF7A9
:105A3000A4FF00210846FFF7F8FC0122DFF8A013BD
:105A4000DFF8A003FFF74DFD1E20DFF89C13C8818F
:105A50000882FFF777FC31E0FFF78FFFDFF88C1348
:105A6000012000F030F929E0FFF787FF0021084608
:105A7000FFF7DBFC0122DFF86813DFF87403FFF7A0
:105A800030FD0520DFF86C13C88120200882FFF765
:105A900059FC13E0FFF771FF00210846FFF7C5FC32
:105AA0000122DFF83C13DFF85003FFF71AFD1E2038
:105AB000DFF84813C8810882FFF744FCDFF81803B9
:105AC000047010BD1CB50C46DFF80C1309780329CF
:105AD00000F27980DFE801F002084972032872D1F0
